:020000040800F2
:10000000900B0020ED010008611E0008051B000890
:10001000E11C0008FF0300080D2600080000000096
:10002000000000000000000000000000651E000845
:100030004904000800000000631E00081D2200089B
:10004000070200080702000807020008070200086C
:10005000070200080702000807020008070200085C
:10006000070200080702000807020008070200084C
:10007000070200080702000807020008070200083C
:10008000070200080702000807020008070200082C
:10009000070200080702000807020008070200081C
:1000A000070200080702000807020008070200080C
:1000B00007020008070200080702000807020008FC
:1000C00007020008070200080702000807020008EC
:1000D00007020008070200080702000801260008BE
:1000E00007020008070200080702000800000000DD
:1000F0000000000000000000000000000000000000
:100100000000000000000000612300080702000852
:10011000070200080702000807020008070200089B
:10012000070200080702000807020008070200088B
:10013000070200080000000000000000070200089D
:10014000070200080702000807020008070200086B
:1001500000F002F800F03AF80AA090E8000C82449F
:100160008344AAF10107DA4501D100F02FF8AFF27C
:10017000090EBAE80F0013F0010F18BFFB1A43F085
:10018000010318475C3900007C390000103A24BF95
:1001900078C878C1FAD8520724BF30C830C144BFEC
:1001A00004680C607047000000230024002500262E
:1001B000103A28BF78C1FBD8520728BF30C148BFCA
:1001C0000B6070471FB51FBD10B510BD00F0E2F801
:1001D0001146FFF7F7FF02F041FA00F000F903B40F
:1001E000FFF7F2FF03BC00F003F900000948804765
:1001F00009480047FEE7FEE7FEE7FEE7FEE7FEE709
:10020000FEE7FEE7FEE7FEE704480549054A064B20
:100210007047000089220008510100089005002065
:10022000900B0020900700209007002053EA020C5A
:1002300000F069802DE9F04B4FF00006002B1FBF46
:10024000B3FA83F503FA05F424FA05F65E4012BF0B
:100250001643B2FA82F502FA05F4C5F120051EBF75
:1002600022FA05FC44EA0C04203556EA044C4FEA15
:10027000144418BF641C4FF000084FF0000990426E
:1002800071EB030C39D3002919BFB1FA81F701FAD8
:1002900007F6B0FA80F700FA07F6C7F120071EBF8D
:1002A00020FA07FC46EA0C062037B6FBF4FCA7EB65
:1002B0000507103F07F01F0BCBF120060CFA0BFBD4
:1002C0002CFA06F644BFB3460026202FA4BF5E4694
:1002D0004FF0000B5BEA060C08BF4FF0010B19EB67
:1002E0000B09ABFB027C48EB0608C01B06FB02CCEB
:1002F0000BFB03CC71EB0C01C1E70B4602464146F8
:100300004846BDE8F08B13B54FF000004FF00001F8
:10031000AFF30080BDE81C4070474FF0000200B50D
:10032000134694469646203922BFA0E80C50A0E818
:100330000C50B1F12001BFF4F7AF090728BFA0E8C6
:100340000C5048BF0CC05DF804EB890028BF40F892
:10035000042B08BF704748BF20F8022B11F0804FD4
:1003600018BF00F8012B704770477047704710B5F1
:1003700000F008F8006810BD10B5044600F002F85F
:10038000046010BD004870473005002000487047E9
:10039000300500207546FFF7F9FFAE4605006946B7
:1003A000534620F00700854618B020B5FFF72CFF14
:1003B000BDE820404FF000064FF000074FF0000866
:1003C0004FF0000B21F00701AC46ACE8C009ACE8E7
:1003D000C009ACE8C009ACE8C0098D46704710B54B
:1003E0000446AFF300802046BDE81040FFF7F7BE9B
:1003F00001491820ABBEFEE7260002007047FEE769
:1004000010B5024610F1FF4F01D3002010BD0B487C
:10041000094900688A4209DD02F0D8FF084A094B01
:1004200002F006FDBDE8104002F054BA0146BDE8F6
:100430001040104603F068B96666A63F0000002031
:10044000CDCCCCCCCCCCF43F704770B54379012BEC
:100450001CD0012646710223037105682B6802F047
:10046000100440F6FE72A2409343D1E900210A43F2
:10047000A2401A432A6001680A68C023A3409A4335
:100480000A60067100214171084670BD022070BDEE
:1004900070B5040003D02079002510B105E00120DB
:1004A00070BD6571204600F007F8022020712561BB
:1004B00001202071002070BD00B585B000210091A1
:1004C00001910291039100680E49884218D10E48AB
:1004D000C16941F00051C161C16901F0005104914D
:1004E000816941F0040181618069694600F004007E
:1004F00004903020009003200190044800F0FEF8A2
:1005000005B000BD0074004000100240000801402A
:1005100018B5046800940068104421B114300090AC
:100520000360002018BD0830F9E770B54279012A50
:100530001ED001224271022303710468266801F073
:10054000100302FA03F52E4326600029016811D03A
:100550000C6804F470153C249C40A54203D14B6800
:1005600043F002034B60027100214171084670BDE7
:10057000022070BD0B68C3F383030F2BF3D14B68CC
:1005800043F00103EEE710B590F821100022022994
:1005900005D00421816380F82020012010BD01686E
:1005A0000B6823F00E030B6001680B6823F0010356
:1005B0000B6090F84030C46B012101FA03F36360D3
:1005C00080F8211080F82020104610BD2DE9F05F42
:1005D00090F821100024022903D004218163012412
:1005E00085E001680A6822F00E020A6001680A6864
:1005F00022F001020A603F4E3E4FB215DFF8F4C010
:10060000DFF8F090DFF8ECA0DFF8E8B0DFF8E4E026
:100610000168783F13011502ACF1640CA9F150098F
:10062000AAF13C0AABF1280BAEF1140E4FF480187E
:10063000B14227D9B9420ED0614512D049451DD0EB
:10064000514518D0594518D0714501D1424615E0A1
:10065000294EB14201D1012210E0274E1436B14299
:1006600001D110220AE0244E2836B14206D0224A97
:100670003C32914201D11A4600E02A461E49091F28
:100680000A602BE0B94213D0614517D0494522D00A
:1006900051451DD059451DD0714501D142461AE042
:1006A000B14202D14FF0807215E0134EB14201D138
:1006B000012210E0104E1436B14201D110220AE09E
:1006C0000D4E2836B14206D00B4A3C32914201D140
:1006D0001A4600E02A46074980394A60012180F81D
:1006E0002110002180F82010416B01B1884720467D
:1006F000BDE8F09F80000240080402402DE9F84F59
:10070000DFF8B891002409F1040A0AF1040B23462A
:100710000F270BF1040EC9E00125A5402A40AA428B
:100720007DD1674ED1F804C0ACEB0608B44532D099
:1007300014DCBCF1030F3AD009DCBCF1000F2AD065
:10074000BCF1010F1CD0BCF1020F31D11DE0BCF196
:10075000110F17D0BCF1120F2AD119E0B8F5881F7C
:1007600019D006DCB8F5803F15D0B8F5801F1FD131
:1007700011E0B8F5001F0ED0B8F5041F18D10AE03B
:10078000CB6815E0CB681B1D12E0CB6808330FE087
:10079000CB680C330CE08B682BB1012B4FF00803B6
:1007A00003D0456104E0042302E0056100E000237A
:1007B000FF2A01D8064601E000F104064FEA84054D
:1007C00001D9A5F12005D6F8008007FA05FC28EA32
:1007D0000C0803FA05F548EA0508C6F800804D68DC
:1007E000ED0062D5374DAE6946F00106AE61AD69E8
:1007F00024F0030605F001050095334D06EB050CCA
:10080000DCF80850A607360F07FA06F825EA0805AF
:10081000DFF8B880404503D14FF0000817E044E00E
:10082000DFF8AC80404502D14FF001080FE0DFF85F
:10083000A480404502D14FF0020808E0DFF898801C
:10084000404502D14FF0030801E04FF0040808FAD8
:1008500006F848EA0508CCF808804D68D9F8006029
:10086000ED034D4601D5164300E096432E604D68DA
:10087000DAF80060AD03554601D5164300E0964313
:100880002E604D68DBF80060ED025D4601D5164331
:1008900000E096432E604D68DEF80060AD027546BC
:1008A00001D5164300E096432E60641C0D682A466D
:1008B000E5407FF431AFBDE8F88F0000000401404F
:1008C000000011100010024000000140000801402B
:1008D000000C01400010014000140140C26821EAF0
:1008E00002030A4043EA0241016170470AB1016113
:1008F00070470904FBE7000001488068704700006A
:100900000800002070B5040025D094F83D000025B3
:1009100020B984F83C50204600F0B8F8242084F830
:100920003D002068016821F0010101602068016834
:1009300041F4004101602068016821F40041016038
:1009400000F000FA4D4A6168914201D84C4900E03C
:100950004C49884201D2012070BD4B492368B0FB4D
:10096000F1F15E6826F03F060E435E6063689342D5
:1009700006D94FF4967359434FF47A73B1FBF3F1F0
:100980002368491C1E6A26F03F06314319626168DC
:10099000914210D84900401EB0FBF1F2521CC2F344
:1009A0000B02042A01D2042022E0B0FBF1F0401C2B
:1009B000C0F30B001CE0A268F2B301EBC10303EB30
:1009C0000116431EB3FBF6F35B1C43F480431B0587
:1009D00049D092B301EBC10202EB0111401EB0FB02
:1009E000F1F0401CC0F30B0040F4804040F40040A4
:1009F0002168CA694CF6FF739A431043C861D4E971
:100A0000071001432068026822F0C0021143016010
:100A1000D4E9030101432068826848F2FF339A4316
:100A200011438160D4E9050108432168CA6822F0B6
:100A3000FF021043C86001E00EE016E02068016884
:100A400041F0010101602564202084F83D00256308
:100A500084F83E50002070BD01EB4106431EB3FBFD
:100A6000F6F35B1CB3E70120C2E701EB4101401E36
:100A7000B0FBF1F0401CC0F30B00B7E7A08601000B
:100A800080841E0000093D0040420F0010B586B072
:100A90000021009101910291039100680F49884261
:100AA0001AD10F4CA06940F00800A061A069694606
:100AB00000F008000490C020009012200190032054
:100AC00003900848FFF71AFEE06940F40010E06167
:100AD000E06900F40010049006B010BD005400401E
:100AE00000100240000C0140024881680278114465
:100AF0008160704708000020074810B5016841F088
:100B000010010160032000F075F80F2000F006F8D6
:100B100000F024F8002010BD0020024070B50D4DFB
:100B200004464FF47A712878B1FBF0F00A4909685D
:100B3000B1FBF0F000F076FB48B9102C07D2002290
:100B40002146501E00F036F800206C6070BD012078
:100B500070BD000008000020140000200C4808B5FB
:100B6000816941F001018161816901F00101009118
:100B7000C16941F08051C161C06900F080500090AE
:100B80000448416821F0E06141F00071416008BD16
:100B90000010024000000140002809DB00F01F02A5
:100BA000012191404009800000F1E020C0F80011CF
:100BB00070470000F0B40E4B1B680C46C3F30223D1
:100BC000C3F10705042D00D90425191D072901D2F9
:100BD000002300E0DB1E012606FA05F1491E214034
:100BE00099409E40761E16403143F0BC01F00FBD87
:100BF0000CED00E0064900F0070208684FF6FF031D
:100C0000184040EA0220034A104308607047000081
:100C10000CED00E00000FA052DE9F0470F46050055
:100C200061D0434E306800F00700B84209D2306806
:100C300020F0070038433060306800F00700B84209
:100C400051D128683B4C810712D5400703D5606815
:100C500040F4E06060602878000703D5606840F4E5
:100C6000605060606068A96820F0F0000843606030
:100C70002878C00728D06868012810D02168022889
:100C800010D0890700292EDA616821F003010143A1
:100C90006160FFF731FE804641F288390DE021683E
:100CA0008903EFE78901EDE7FFF726FEA0EB0801D6
:100CB000494502D90320BDE8F0876068696800F003
:100CC0000C00B0EB810FEFD1306800F00700B842A4
:100CD0000BD9306820F0070038433060306800F0EE
:100CE0000700B84201D00120E5E72878400705D584
:100CF0006068E96820F4E0600843606028780007D5
:100D000006D56068296920F4605040EAC10060603F
:100D100000F038F86168084AC1F30311515CC8401B
:100D20000649086006480068FFF7F8FE0020C2E7A1
:100D30000020024000100240C63A000814000020C3
:100D40000C0000200448054900684968044AC1F3C2
:100D50000221515CC840704714000020001002407E
:100D6000D63A00080448054900684968044AC1F3B6
:100D7000C221515CC840704714000020001002409E
:100D8000D63A0008F0B523A289B00FCA04AC84E8B3
:100D90000F0024A10FC98DE80F0026494A68264894
:100DA00002F00C03042B2FD0082B2DD104A8C2F382
:100DB0008343C45CD00329D5C86A00F00F001DF836
:100DC0000020C86AC00316D5C86AC96AC0F30310F8
:100DD000C1F30321401C891CA0FB0223A1FB0416C4
:100DE000154F0025A1FB070C06FB07C601FB05619B
:100DF000FFF71CFA03E010486043B0FBF2F09DF8E7
:100E00001D10A14200D1400809B0F0BD0B4860435D
:100E1000FAE70000000004050607080900000000CA
:100E2000000D00000102030405060708090A0B0C67
:100E30000D0E0F100010024000127A0000093D0054
:100E40002DE9F84F040070D02078F14DC00749D04B
:100E50006868C0F38100012807D06868C0F381008A
:100E6000022809D16868C00306D52868800339D5EF
:100E7000A0680028E7D035E0A068B0F5803F0BD02F
:100E800010B1B0F5A02F11D0286820F48030286070
:100E9000286820F4802002E0286840F48030286030
:100EA000A06890B1FFF728FD06460AE0286840F4E4
:100EB00080202860F0E700BFFFF71EFD801B64283C
:100EC00076D828688003F7D50CE0FFF715FD0646B5
:100ED00005E000BFFFF710FD801B6428F0D82868EC
:100EE0008003F7D42078CB4E80074FF001094FF0F4
:100EF00000073AD5686810F00C0F07D06868C0F397
:100F00008100022809D16868C00306D428688007D8
:100F100015D56069012808D111E06069B8B1C6F83B
:100F20000090FFF7E9FC804606E042E1FFF7E4FCB1
:100F3000A0EB08000228C3D828688007F6D52868E7
:100F4000A16920F0F80040EAC10028600DE0376098
:100F5000FFF7D2FC804605E0FFF7CEFCA0EB0800CF
:100F60000228ADD828688007F6D4207800072ED54F
:100F7000A948E169E9B1C0F80090FFF7BDFC8046DF
:100F800006E000BFFFF7B8FCA0EB0800022897D8E6
:100F9000686A8007F6D5A1484FF4FA510068B0FBA3
:100FA000F1F0009000BF0098411E0091FAD20EE0CF
:100FB000B0E00760FFF7A0FC804605E0FFF79CFC6F
:100FC000A0EB0800022889D8686A8007F6D4207848
:100FD000400763D5E8694FF00008C00009D4E8690C
:100FE00040F08050E861E8694FF0010800F080505F
:100FF00000908B480168C90512D40168834641F40A
:1010000080710160FFF778FC824605E0FFF774FC11
:10101000A0EB0A0064287DD8DBF80000C005F5D5F8
:10102000206901280AD008B1052813D0286A20F0C9
:1010300001002862286A20F0040002E0286A40F0DB
:1010400001002862206941F2883B98B1FFF754FC07
:1010500082460BE0286A40F004002862EEE700BFF9
:10106000FFF74AFCA0EB0A01594553D8286A8007CC
:10107000F6D50CE0FFF740FC824605E0FFF73CFCAC
:10108000A0EB0A01594545D8286A8007F6D4B8F183
:10109000000F03D0E86920F08050E861E06AD0B327
:1010A0006968C90307D56968C1F38101022902D1C2
:1010B000E96AC9037DD4022808D0E86A20F48030A8
:1010C000E862B766FFF718FC80463BE02868C0007E
:1010D00005D5E86A616B00F0F000884269D1B76617
:1010E000FFF70AFC804605E0FFF706FCA0EB0800CE
:1010F000642874D828680001F6D4E86A616B20F08F
:10110000F0000843E862E86A216B20F4706008434D
:10111000E86201E063E018E0C6F86890FFF7ECFBD6
:10112000804605E0FFF7E8FBA0EB0800642856D8EE
:1011300028680001F6D508E0FFF7DEFBA0EB080009
:1011400064284CD828680001F6D4206A90B36968F6
:10115000C1F38101022949D00228376603D0FFF785
:10116000CBFB04463EE0FFF7C7FB074605E000BFA8
:10117000FFF7C2FBC01B022831D828688001F7D4D2
:10118000606AB0F5803F09D1E86A61680843E862A7
:10119000E86AE16820F00F000843E862D4E9090139
:1011A0000843696821F4741108436860C6F86090C8
:1011B00001E028E029E0FFF79FFB044605E000BFBF
:1011C000FFF79AFB001B022809D828688001F7D591
:1011D0001BE000BFFFF790FB001B022802D9032091
:1011E000BDE8F88F28688001F4D40EE00128F7D01C
:1011F0006868626A00F48031914204D1A16A00F407
:101200007010884201D00120EAE70020E8E70000E2
:1012100000100240000042428004424214000020BC
:101220000070004010B5401EB0F1807F01D3012056
:1012300010BD4FF0E02460610F21601701F0E7F965
:101240000020A06107202061002010BD704770477A
:1012500070B590F83C20012A29D0012480F83C4048
:10126000022280F83D2003685A689D6822F07006CB
:101270000A6832435A600F4B02689A420BD0B2F1AF
:10128000804F08D00C4B9A4205D00C4B9A4202D0AA
:101290000B4B9A4204D1496825F0800319439160B1
:1012A00080F83D40002180F83C10084670BD0220C7
:1012B00070BD0000002C0140000400400008004008
:1012C000000C004010B5040003D094F83D0010B1AC
:1012D00007E0012010BD002084F83C00204600F00B
:1012E0001FF8022084F83D00211D206801F03EF81F
:1012F000012084F8460084F83E0084F83F0084F81A
:10130000400084F8410084F8420084F8430084F8E7
:10131000440084F8450084F83D00002010BD000022
:1013200008B5114A01681148914211D1C16941F0D3
:101330000801C161C069002200F008000090114658
:101340003220FFF737FCBDE808403220FFF724BC0D
:10135000074A914207D1C16941F02001C161C069CA
:1013600000F02000009008BD000C0040001002407A
:101370000014004090F83D10012901D00120704771
:10138000022180F83D1000680C4988420BD0B0F172
:10139000804F08D00A49884205D00A49884202D0C5
:1013A0000949884204D1816801F00701062903D068
:1013B000016841F00101016000207047002C0140EC
:1013C0000004004000080040000C004090F83D1070
:1013D000012901D001207047022180F83D100168E9
:1013E000CA6842F00102CA6000680D4988420BD009
:1013F000B0F1804F08D00B49884205D00A49884295
:1014000002D00A49884204D1816801F00701062907
:1014100003D0016841F00101016000207047000025
:10142000002C01400004004000080040000C004077
:1014300070B5044690F83C00012817D0012584F8C7
:101440003C50022084F83D002068826822F0770238
:1014500022F47F4282600868502830D00DDC2028BA
:101460004DD005DC98B310283BD148E0022070BD78
:10147000302844D0402834D139E0602828D0702862
:1014800006D0B0F5805F2CD0B0F5005F29D10AE01E
:10149000CB68D1E90121206800F0A6FF20688168AF
:1014A00041F0770109E0CB68D1E90121206800F023
:1014B0009BFF2068816841F48041816011E0CA6827
:1014C0004968206800F0A2FF5021206807E016E07C
:1014D000CA684968206800F0AAFF6021206800F00F
:1014E0008DFF84F83D50002084F83C0070BDCA6830
:1014F0004968206800F08AFF40212068EFE72268F1
:1015000001461046EBE72DE9F0410D46040003D0FB
:1015100094F83D0018B108E00120BDE8F0810020FA
:1015200084F83C00204600F041F8022084F83D0099
:101530002068816844F2070291438160211D206880
:1015400000F014FF226890689169166A2B68AF69F1
:10155000034340F20330814341EA0721A868EF6961
:1015600008434FF6FC418843E96840EA07200143FD
:1015700028692F6A000140EA0730084369686D69ED
:1015800026F0220646EA05152943936022689061F9
:1015900054F8460B0162012004F81F09E07520761B
:1015A000E0762077A0750020B7E7000000B585B091
:1015B0000021009101910291039100680D49884238
:1015C00016D10D48C16941F00201C161C16901F044
:1015D00002010491816941F00401816180696946D9
:1015E00000F004000490C02000900448FFF786F843
:1015F00005B000BD0004004000100240000801409A
:10160000704770B50446006801694FF00005C94392
:10161000890715D4C168C943890711D4E91E01613E
:1016200001202077206880698007204602D0FFF7DC
:10163000E7FF04E000F098F8204600F096F82577E0
:1016400020680169C943490717D4C168C9434907DC
:1016500013D46FF0040101610220207720688069B3
:1016600010F4407F204602D0FFF7CAFF04E000F0EC
:101670007BF8204600F079F8257720680169C94396
:10168000090716D4C168C943090712D46FF00801CD
:101690000161042020772068C0698007204602D0BD
:1016A000FFF7AEFF04E000F05FF8204600F05DF8C1
:1016B000257720680169C943C90617D4C168C943A1
:1016C000C90613D46FF0100101610820207720684B
:1016D000C06910F4407F204602D0FFF791FF04E07C
:1016E00000F042F8204600F040F8257720680169B4
:1016F000C943C90708D1C168C943C90704D1891EB4
:101700000161204600F032F820680169C9430906EA
:1017100009D4C168C943090605D46FF0800101618D
:101720002046FFF793FD20680169C943490609D4A3
:10173000C168C943490605D46FF0400101612046E4
:1017400000F03CF820680169C94389060BD4C168E0
:10175000C943890607D46FF0200101612046BDE826
:101760007040FFF774BD70BD7047704710B50F49EA
:1017700000680968884217D10D4C6088401C80B20F
:101780006080042806D94FF480510A48FFF7A6F874
:1017900000206080084890F82200022804D1BDE8AB
:1017A0001040002000F060BB10BD0000C800002009
:1017B0000400002000080140E0010020704770474D
:1017C00070470000F8B5026804461068D168536994
:1017D00010F00F0F4FF0000553D003F0010601F495
:1017E000907737435FD0C20705D0CA0503D5226C76
:1017F00042F001022264420705D5DA0703D0226CC9
:1018000042F002022264820705D5DA0703D0226C77
:1018100042F004022264020707D501F0200232439D
:1018200003D0226C42F008022264226C002A34D0D9
:10183000800604D5880602D5204600F02AFE2068DE
:101840004069216CC0F38010090700D430B32046F2
:1018500000F007FE2068416949061BD5416921F067
:1018600040014161A06BA8B158494163A06BFEF7EC
:10187000ADFE002811D0A06B416B01B0BDE8F04077
:10188000084783060FD58B060DD52046BDE8F840E6
:1018900000F0FFBD2046FFF793FFF8BD2046FFF79D
:1018A0008FFF2564F8BD266B2023012E52D1C6067A
:1018B00050D5CE064ED5106850680090506940064D
:1018C0002AD5A16B086840680004000CEAD0A68DF8
:1018D0008642E7D9E0858869202818D0D06820F4AE
:1018E0008070D0602068416921F001014161206869
:1018F000416921F04001416184F83E302563206850
:10190000C16821F01001C160A06BFEF73CFEA08D04
:10191000E18D401A81B219E0A08DE18D401A81B2AB
:10192000E08D0028BED00029BCD0D06820F4907093
:10193000D0602068426922F00102426184F83E30A2
:1019400025632068C26822F01002C2602046FFF7BB
:1019500036FFF8BD05062BD50D0629D594F83D00B8
:101960002128F6D1A068B0F5805F01D12069B0B11F
:10197000206A411C2162216800784860E08C401E8A
:101980000004000CE084E4D12068C16821F08001EB
:10199000C1602068C16841F04001C160F8BD206AA3
:1019A0000088C0F308005060206A801C2062E5E7D0
:1019B0004006F3D54806F1D5D168204621F0400114
:1019C000D16084F83D3000F09CF8F8BD5324000845
:1019D00070B5040004D094F83D00002510B106E075
:1019E000012070BD84F83C50204600F023F82420EC
:1019F00084F83D002068C16821F40051C160204690
:101A000000F0A2FD2068016921F490410161206885
:101A1000416921F02A0141612068C16841F4005107
:101A2000C1602564202084F83D0084F83E00002039
:101A300070BD0000F0B585B00024009401940294BC
:101A4000039406682A48294F011502220323C5146E
:101A5000BE4220D1C66946F40026C661C66906F4B6
:101A600000260496866946F0100686618069CDE9F5
:101A7000001200F01000CDE903301E4E69463046DA
:101A8000FEF73CFECDE90054694630460294FEF76D
:101A900035FE05B0F0BD184FBE42FAD1C66946F416
:101AA0008026C661C66906F480260496866946F0DB
:101AB000080686618069CDE9001200F00800CDE9D2
:101AC00003300E4E69463046FEF718FECDE900544D
:101AD000694630460294FEF711FE00221146272087
:101AE000FFF768F82720FFF757F8D2E7004C0040CF
:101AF000001002400010014000480040000C01406E
:101B000070477047FEE700002DE9F04786B00024DB
:101B10003A480094019402940394816941F01001C1
:101B20008161816901F010010491816941F0200116
:101B30008161816901F020010491816941F0040112
:101B40008161816901F004010491816941F008011A
:101B500081618069DFF8A8A000F0080041F608352F
:101B60000490002229465046FEF7C0FEDFF894801C
:101B7000002204214046FEF7B9FEDFF88C904FF4B6
:101B80007077002239464846FEF7B0FE4FF4C04059
:101B9000CDE90004694648460294FEF7AFFD009582
:101BA000022601250396CDE9015469465046FEF709
:101BB000A5FD0420CDE90005CDE902466946404671
:101BC000FEF79CFDE803CDE9000469464046029417
:101BD000FEF794FD00970396CDE901546946484607
:101BE000FEF78CFDA802CDE9000469465046029438
:101BF000FEF784FD06B0BDE8F0870000001002404B
:101C000000080140000C01400010014010B58CB0EC
:101C100024216846FEF781FB0024164809941449E4
:101C20000A94C0E900144FF6FF71C0E90241046153
:101C300084610320CDE900040120CDE902040A21DA
:101C40000491CDE90540CDE9074169460948FFF710
:101C50005AFC08B172B6FEE7099409A905480A942E
:101C6000FFF7F6FA002801D072B6FEE70CB010BDFF
:101C7000000400408000002010B586B00024174802
:101C80000094019402940394049413490594016010
:101C90008F21C0E901144CF24F31C0E903148021B7
:101CA0008161FFF70FFB08B172B6FEE74FF4805079
:101CB000009069460948FFF7BBFB08B172B6FEE722
:101CC000049404A905480594FFF7C2FA002801D03E
:101CD00072B6FEE706B010BD000C0040C800002040
:101CE000FEE700002DE9FF5F00EB80039146884688
:101CF0004048DDE90F1200EB0314DDF838B03E4F29
:101D0000C4E90412388801F0EBFC05463B4958460B
:101D100001F0F0FB294601F0F7FC01F0ADFC231DBA
:101D2000A06183E8000B82460646039801F04EFB53
:101D3000334A344B00F0B0FE00F0CCFD0546206085
:101D40000121F86901F081FE414601F0DDFC074602
:101D50002946084601F0D8FC394601F0CBFB01F0DA
:101D60008BFC0546A0634946404601F05BFB0746F5
:101D7000304601F09DFC494601F0C6FC394601F0B1
:101D8000B9FB01F079FCE063854229DC284601F0CB
:101D90008FFC414601F0B8FC80F00040494601F05C
:101DA000A9FB01F069FC0646E062284601F029F82B
:101DB00081468846304601F024F8074621F0004667
:101DC000504601F01EF83A46334601F015FA4A46ED
:101DD000434601F011FA00F0B7FFA562206205E06A
:101DE000A0EB0A01E16200212162A062E06A2063A7
:101DF000BDE8FF9F10020020E00100200000B44376
:101E00007214200A66FC224010B5044610480121D5
:101E1000C06901F01AFE0F4904EB840201EB0214C1
:101E2000616801F067FB01F0D1FA00F0DFFC0022ED
:101E3000094B00F0FDFF0022084B00F0F9FF00F015
:101E400083FF0021E16120646162E164606410BD90
:101E5000E00100201002002000407F40002085406B
:101E6000FEE77047704700002DE9F041804600F022
:101E7000E3FC464C0221464B257CCA1E08EB880039
:101E8000012603EB001015B1012D20D119E094F8C3
:101E90002330012B19D1456A6D1C4562836A9D422E
:101EA00038DB4362016A00290FDDC3695B1CC36133
:101EB0008B4204DA84F82060016C816407E0C16120
:101EC00003E094F82330012B1ED084F8202094F9ED
:101ED00020704FF48033591E2E4D97421FD0012F92
:101EE0004DD0022F34D1026C4264C46C476A04EBBB
:101EF000420406EB870694FBF6F7D21B94FBF6F739
:101F000006FB174402641DE0456A6D1C4562836A46
:101F10009D4202DA84F82010D9E74362CAE7026BD7
:101F2000521C026316D5046C4464C76C06EB82062F
:101F300007EB440797FBF6F2A21A97FBF6F406FBB1
:101F400014740264C4649A421BDB2868C162E960AD
:101F5000BDE8F081002784F8207084F822604046B4
:101F6000103400F0EFF8E77414F8100908B984F899
:101F7000246029684CF24F30C862E860E8E7026CE0
:101F8000E1E72968CA62006CF7E70000E001002081
:101F900010020020C80000202DE9F0471F4691469E
:101FA0000D46064600F072F9604CE560C4E905761E
:101FB00000F0C2F9E0685E4FDFF8788108282ED281
:101FC000DFE800F02D04132D5069829BD4E9051041
:101FD00001F090FA01F0FAF93A46434600F028FF82
:101FE00000F078FCE061012017E0606901F0EEF993
:101FF00005460E46A06901F0E9F94FF0FF3201F005
:10200000F6FC2A46334600F047FD3A46434600F0C8
:102010000FFF00F05FFCE061022000F047F9E0698B
:1020200001F0D4F902460B464348444900F034FD20
:1020300000F0BAFE208084F810900020FEF7E0F94E
:102040003F4C014623460022012000F009FC0020FD
:10205000FEF7D6F92346BDE8F047014600220220EC
:1020600000F0FEBB606901F0B1F905460E46A069BB
:1020700001F0ACF96FF0010201F0B9FC33462A46D9
:1020800000F00AFD3A46434600F0D2FE00F022FC82
:10209000E0610420C1E7606901F098F905460E4649
:1020A000A06901F093F96FF0020201F0A0FC2A464A
:1020B000334600F0F1FC3A46434600F0B9FE00F02A
:1020C00009FCE0610520A8E7606901F07FF9054699
:1020D0000E46A06901F07AF96FF0030201F087FC67
:1020E0002A46334600F0D8FC3A46434600F0A0FEAC
:1020F00000F0F0FBE06106208FE7606901F066F90F
:1021000005460E46A06901F061F96FF0040201F086
:102110006EFC2A46334600F0BFFC3A46434600F0C8
:1021200087FE00F0D7FBE061072076E7E0010020A2
:102130006811F16346DF913F7A008BFCFA21194068
:102140003333534070B500EB80010D4800EB0114B0
:102150006069FEF755F90B4D01462B460022012020
:1021600000F07EFB6069FEF74BF901462B4600222A
:10217000022000F075FBBDE8704000F08FB8000051
:10218000100200203333534070B51B4D00EB80012B
:10219000002285F82D00194800EB01141848236C23
:1021A0000168B3F5803F4A6204DB02684FF6FF71B5
:1021B000D16203E00268216CD162216CC1602069A8
:1021C000FEF71EF90F4E014633460022012000F0B3
:1021D00047FB2069FEF714F901463346002202202E
:1021E00000F03EFB00F05AF800F026FB022005F854
:1021F000220F0120687070BDE00100201002002055
:10220000C8000020333353400348002100F8201F4A
:10221000C170017370470000E0010020FEF764BC4C
:1022200070B594B038216846FEF777F814210EA8EF
:10223000FEF773F8012500242804CDE902040226E4
:10224000CDE908600095059501944FF4E010CDE9C3
:102250000A046846FEF7F4FD08B172B6FEE70F20E7
:10226000CDE90E064FF48060CDE9104002210EA8A2
:102270001294FEF7D1FC08B172B6FEE7014805677B
:1022800014B070BD0000424270470000002280215F
:102290000148FEF72BBB0000001001400122802105
:1022A0000148FEF723BB00000010014070B5204B31
:1022B000204C9E154FF40075082838D2DFE800F056
:1022C00004061214161D2426002200E001222946CD
:1022D0001846FEF70BFB002231462046FEF706FBB0
:1022E00000221EE0002202E0002207E0012229462F
:1022F0001846FEF7FBFA0122EEE7012229461846AE
:10230000FEF7F4FA002207E0002200E0012229464D
:102310001846FEF7EBFA012231462046FEF7E6FAB0
:10232000012229462046BDE87040FEF7DFBA70BDA5
:10233000001001400008014010B5084C0122402166
:102340002046FEF7D3FA0A2000F072F92046002258
:10235000BDE810404021FEF7C9BA0000001001405E
:102360000148FFF74EB90000C8000020F0B5026830
:10237000194B1A4C1A4D1B4E4FF08047984207D00C
:10238000B84205D0A04203D0A84201D0B04204D147
:1023900022F0700C4A6842EA0C02984207D0B84218
:1023A00005D0A04203D0A84201D0B04203D122F40C
:1023B0004074CA6822434C6922F0800222430260C2
:1023C0008A68C2620A688262984201D1096901631F
:1023D00001214161F0BD0000002C014000040040DB
:1023E00000080040000C004010B5846842EA032257
:1023F00024F47F440A432243826010BD826822F0A5
:1024000070020A4342F007018160704710B5036A09
:10241000046A24F001040462846924F0F00444EAAC
:10242000021423F00A020A438461026210BD10B54F
:10243000036A23F0100303628369046A23F4704380
:1024400043EA023224F0A00343EA011182610162EF
:1024500010BD10B5406A0021C185C184FFF7B0F9F5
:1024600010BD0168CA6822F49072CA6001684A69A6
:1024700022F001024A61016B012904D10168CA6896
:1024800022F01002CA60202180F83E100021016372
:10249000704708B590F83E10222901D0022008BDEF
:1024A00082684FF480539A4201D1016921B1816A57
:1024B0009A421BD04AB10AE00268816A5268C2F3AC
:1024C00008020A80816A891C08E0026972B1026808
:1024D000526802F07F020A70816A491C8162C18DD4
:1024E000491E0904090CC18503D019E0026852682D
:1024F000F1E70168CA6822F02002CA600168CA6870
:1025000022F48072CA6001684A6922F001024A61BD
:10251000202180F83E10016B012903D0FFF7F0FA6B
:10252000002008BD002101630168CA6822F0100282
:10253000CA6001680A68D20602D50A684968009133
:10254000818DFFF73CF9EBE770B50446006801693F
:10255000E26821F44051114301612169A0680843F8
:10256000616908432168CA6841F20C639A430243D7
:10257000CA6020684169A26921F440711143416138
:102580001E492068884202D1FEF7ECFB01E0FEF70D
:10259000D9FB00EBC00101EB0012606864218000F0
:1025A000B2FBF0F3B3FBF1F36FF018067343B2FB29
:1025B000F0F5B2FBF0F605EB8305322303EB0515CE
:1025C000B5FBF1F5B6FBF1F605F0F00505EB0615E8
:1025D000B2FBF0F6B2FBF0F0B0FBF1F06FF01802D6
:1025E000504306EB800003EB0010B0FBF1F02168D4
:1025F00000F00F002844886070BD000000380140E2
:102600000148FFF7DFB800009C010020FEE7090742
:10261000090E002804DB00F1E02080F80014704768
:1026200000F00F0000F1E02080F8141D704700005A
:102630004FF47A71884200D90846074900220B6896
:102640005A6209684A6A8242FCD30869C043C007DB
:1026500001D1801E08617047100100200EB5FEF701
:102660004BFAFFF7DDFDFFF74FFA534851490024BD
:1026700001604FF41651C0E901140C25C460C0E993
:1026800004458461C461FFF7A3F908B172B6FEE79F
:10269000494800948C384949019401604721C0E9B8
:1026A00001144FF6FF718461C160FEF70BFE08B1A3
:1026B00072B6FEE74048009469468C380194FEF7F4
:1026C000C7FD08B172B6FEE73E4900943C4801944C
:1026D00008600846FDF7DCFE08B172B6FEE700941C
:1026E0000022694637480194FDF7AFFE08B172B683
:1026F000FEE7102269463348FDF7A7FE08B172B61F
:10270000FEE7FFF7B9FA2F482F49143001602F492F
:10271000C0E901144FF48041C0E903414461846180
:10272000C4610462FEF7EEF808B172B6FEE7FFF787
:102730006DFA21492648443908604FF4E130C1E977
:102740000104CC60C1E904458C610846CC61FFF707
:102750003FF908B172B6FEE700211A48FDF7E5FE21
:1027600010211848FDF7E1FE13488C38FEF702FEF1
:102770001448B030FEF72AFE4FF07E552B4600225B
:1027800007211448FFF708FC1449CDE90015124849
:1027900014490290124B0A460020FFF7A3FAFFF7F4
:1027A00033FD0020FFF730FB0F4920460C70FFF788
:1027B000EBFCFEE7004800409C01002000140040B4
:1027C000007400401800002000540040A086010062
:1027D000004C00406666E63FCDCC4C3E00C8AF489A
:1027E000000020410000F041040000202DE9F041EC
:1027F00006460F4600F01AFC041E0D4618BF0120C5
:10280000284320F00040C0F17F6000F1E040C00F9D
:102810000ED0301C18BF0120384320F00040C0F11A
:102820007F6000F1E040C00F04BF0120FDF7A4FD70
:1028300020462946BDE8F08170B50122074D1402FB
:1028400021462846FEF752F80220FFF7F1FE214606
:102850002846BDE870400022FEF748B8001001404D
:102860002DE9F041054616468846184600F0AEFDB3
:1028700002460B460020154900F00EF904460F46AB
:102880003146404600F0CEFD00F0A0FD22463B461A
:1028900000F0CEFA00F058FA0346B0F5805F02DB94
:1028A00040F6FF7302E0002B00DA0023012D08D070
:1028B000022D09D100221021BDE8F0410448FDF7A6
:1028C00027BE00221146F7E7BDE8F08100FEAF40C9
:1028D0001800002021F00042A2F16052B2F5801FE2
:1028E00001F0004328BFD2F17F6C0BD95FEA001CD6
:1028F00043EAC20242EB507018BF704728BF20F075
:1029000001007047B2F5801FBCBF184670474FEA00
:10291000410C1CF5001F02D2084600F0BCBF70B588
:1029200000F030FB00000089FFF7F6BF4FF00040D9
:10293000A0F580007047000010B591EA030F48BF72
:1029400083F0004300F16084841A71EB030C05D21C
:10295000121943EB0C03001B61EB0C01DFF824E1BF
:102960004FEA1154A4EB135C1EEA430F18BF9EEA12
:10297000445F73D023EA0E03DCF1200E21EA0451F8
:1029800043F4801332D322FA0CFE10EB0E0023FA2C
:102990000CFE41EB0E01CCF1200E03FA0EFE10EB03
:1029A0000E0051F10001B1F5801FCCF1200E32D2A2
:1029B00001EB045112FA0EF2BDE8104058BF704707
:1029C000401C38BF5FEA420218BF7047002814BF9E
:1029D00020F0010041F100014FEA410313F5001F0F
:1029E00038BF7047A1F1C04100F01ABB012A43EB88
:1029F0000302ACF1200CDCF11F0E32BF4FF0000ED1
:102A000023FA0CF310EB030041EB0451B4EB115F1C
:102A1000D0D0A1EB045101F5801149085FEA3000E4
:102A200001EB04510ED350F1000038BF12FA0EFE34
:102A300008D1BDE81040C9E7401C38BF5FEA420238
:102A4000CAD1C3E7BDE810404FEA410313F5001FA8
:102A500038BF7047A1F1C04100F0E2BA9EEA445F7E
:102A600008D011EA5E0FBDE8104004BF01F000413C
:102A700000207047BDE8104070B500F083FA00BF39
:102A800064FBBE3E0000E0FF02494FF0000000F092
:102A90007CBF00BF0000F87F2DE9C04130B4DFF8F3
:102AA000A0C23CEA111418BF3CEA131400F0EC80F9
:102AB00081EA03051CEA111444EAD57418BF1CEA24
:102AC000131500F0C780A4EB05044FF0004545EA5C
:102AD000C12145EAC32341EA505143EA525304F16C
:102AE0007F74994204F500344FEAC0204FEAC222B5
:102AF00008BF904200F09C804FEA13650FF2401629
:102B0000765D4FEA134506FB05F7C7F1807706FBB4
:102B100007F74FEAD737A7FB03687642C8F5803836
:102B2000A7FB06CE38BFA8F1010807FB08E64FF067
:102B3000000EA6FB028CE6FB03CEDCF1000CCEF10E
:102B4000004E38BFAEF1010EA6FB0C584FF0000747
:102B50004FF00005E6FB0E87A1FB08C6A0FB07CEE1
:102B600016EB0E0645F10005E1FB076515F1E04E99
:102B70007EBFA4F580345FEA46066D4116F18007FA
:102B800045F100054FEA17274FEA066647EA056751
:102B9000A6F1DE46B6F1805F4FEA15251FD938460B
:102BA00024F0010C05EBC471BCF1FE6F01EB0C11BC
:102BB00002D8F0BCBDE8008124425CBF01F5801E54
:102BC0009EEAC47F02D4F0BCBDE80081244238D420
:102BD000F0BCA1F1C041BDE8004100F021BA4FEACC
:102BE000D22242EA43524FEAD323A7FB02864FEA9E
:102BF000D02040EA415007FB03661EEA0E0F4FEA61
:102C0000D12105FB026658BFA6EB0056B6EB005675
:102C10004FEA520E4EEAC37E18EB0E0E56EB530EE1
:102C2000BDD518EB02085E417F1C55F10005B6E7E3
:102C30004FF480154FF000074FF000064FF00008EA
:102C4000ADE7F0BC4FF0000001F1C04101F00041E0
:102C5000BDE8008111EA0C1F0CEA131500D00CE04E
:102C600013EA0C1F00F025804FF00000F0BC81EA51
:102C7000030101F00041BDE80081F0BCBDE8004166
:102C800081EA030100F0CCB9F0BCBDE8004170B5A9
:102C900000F078F9097EFC3E00F007B881EA0301F4
:102CA0004FF0000001F00041704781EA030100F09D
:102CB000B7B9F0BCBDE800414FF0000021497047B2
:102CC000FFFDFBF9F7F5F4F2F0EEEDEBE9E8E6E4F1
:102CD000E3E1E0DEDDDBDAD8D7D5D4D3D1D0CFCD78
:102CE000CCCBCAC8C7C6C5C4C2C1C0BFBEBDBCBBB1
:102CF000BAB9B8B7B6B5B4B3B2B1B0AFAEADACABAC
:102D0000AAA9A8A8A7A6A5A4A3A3A2A1A09F9F9E85
:102D10009D9C9C9B9A999998979796959594939337
:102D2000929191908F8F8E8E8D8C8C8B8B8A8989CE
:102D30008888878786858584848383828281818051
:102D40000000FF070000F87F4FEA41034FEA5353AA
:102D5000A3F58063D3F11E03C8BFD3F1210C0CDDB2
:102D60004FF0004242EAC12242EA505232FA03FCDA
:102D70008CEAE17CACEBE1707047102BC4BF002003
:102D8000704703F5787CBCF1FF3F04D06FF0004240
:102D900082EA2100704770B500F0F4F8499224806F
:102DA00000207047F2E700004FEA1153A3F580635B
:102DB000D3F11E03A8BFD3F1200C08DB4FF0004273
:102DC00042EAC12252EA505232FA03F070470942F5
:102DD0000BD4102BC4BF0020704703F5787CBCF1E6
:102DE000FF3F05D04FF0FF3070474FF000007047B5
:102DF00070B500F0C7F800BF4992248000207047EA
:102E0000F0E710F0004248BF4042B0FA80F310FAF9
:102E100003F10AD0C3F11D0303F580634FEA41506B
:102E200002EB035202EBD12170474FF000007047D4
:102E3000DFF848C170B51CEA111E1EBF1CEA13154D
:102E40009EEA0C0F95EA0C0F00F06F8081EA0304F4
:102E500023EA4C134EEAD47E21EA4C1141F480114E
:102E600043F48013AE44A1FB024CA0FB0365AEF11A
:102E70007F7E361955EB0C05A1FB034C4CF100038A
:102E8000A0FB021C16EB0C06654153F1000309423E
:102E900018BF46F0010613F4007F0BD14FEA03314F
:102EA0004FEA0530340341EA155140EA16506FF0FD
:102EB00003020AE04FEAC3214FEAC520F40241EAC7
:102EC000555140EA56506FF0020202EB2E4201EBE0
:102ED000025585EACE710AD05FEA440C18BF24F08F
:102EE000004450F1000041F1000120EAD47040F2AA
:102EF000FE7C624500D270BDA84214BF4FF08044F2
:102F00004FF04044002E08BF0024BEF1806FA8BFE0
:102F1000A1F1C041BDE8704080F282804FF0000016
:102F200001F1C04101F0004170479EEA0C0F0CEA2C
:102F3000131518BF95EA0C0F06D04FF0000081EA78
:102F4000030E0EF0004170BD00F01CF88900013E38
:102F500000F007B800F009B84FEA430C5FEA5C5C88
:102F600008D081EA030100F05BB84FEA410C5FEA48
:102F70005C5CF6D14FF00000014970470000FF078C
:102F80000000F87F0EF1020E2EF0030E5EF8046BC7
:102F9000364205D4012A43EB030515F5001F12D86C
:102FA000012841EB010C1CF5001F0CD80ED14FEA93
:102FB000D17C15F5001F0CEB4C0C0CF1020C08BF7A
:102FC0004CEBD37C04E04FF0080C01E04FEAD37CDB
:102FD0000CEB4C0526FA05F606F00706B6F1040CD4
:102FE00006D20EEB860CBDE870404CF0010C604739
:102FF000DFE80CF0090B02024FF000414FF0000037
:10300000A1F5002170BD19461046012851EB0104BD
:1030100018BFD4F5001484BF002001F0004170BD3A
:103020000808A0F500114FEA310170472DE9F04181
:1030300001F5801CBCF5001FC0F2C3804FEA115C93
:1030400021EA0C510CF1FD0C41F480115FEA5C0C9B
:103050000CF5C07C01D3400049413DA4890241EAFE
:10306000905187028E0E0A0CA45D04FB04F602FB4D
:1030700006F6C6F14046A4FB0662F60D46EA422675
:1030800006FB06F4A4FB01235242C3F1404338BFC0
:103090005B1EA6FB02420024E6FB0324D20B42EA9D
:1030A0004446A6FB0623A1FB02E2A3FB07E4A41807
:1030B0004FF0000252F10002E3FB01426442C2F110
:1030C000404E38BFAEF1010EA6FB04234FF00002C4
:1030D000E6FB0E32A2FB03464FF00004B61954F192
:1030E0000004E2FB0264A1FB06E6A4FB07E816EB82
:1030F00008064FF0000858F10008E4FB016876422A
:10310000C8F1405838BFA8F10108A2FB06E4A3FBB0
:1031100008E52D194FF0000454F10004E2FB0854B7
:10312000A1FB05E6A7FB04E818EB06084FF0000634
:1031300056F10006E1FB048618F1200556F1000661
:10314000A809A8F11B08B10908F03F08B8F10A0F57
:1031500040EA86601CD901EB0C51BDE8F08100BF4C
:10316000FCF5EEE8E2DDD8D3CFCBC7C3C0BDB9B61E
:10317000B4B1AEACA9A7A5A3A19F9D9B9A98969523
:103180009392908F8D8C8B898887868584838281AA
:10319000A0FB006800FB01F208EB4208B8EB8728AF
:1031A00007D5341858EB0104D5D5401C51F1000166
:1031B000D1E7341A78EB0104CDD4401E71F100013F
:1031C000C9E75FEA4C0C5FEA9C5C0DD105D34FF078
:1031D000000001F00041BDE8F081BDE8F04170B5AC
:1031E000FFF7D0FE6DDBFFBEBDE8F0414FF0000001
:1031F000004970470000F87F10B591EA030F48BFFF
:1032000083F000433FF5A0AB841A71EB030C07D2A7
:1032100012198CF0004C43EB0C03001B61EB0C010A
:10322000DFF8A4E14FEA1154A4EB135C1EEA430F4C
:1032300018BF9EEA445F00F0B08023EA6E0352425A
:1032400021EA0451C3EB6E0338BF5B1EDCF1200E94
:1032500025D322FA0CFE10EB0E0043FA0CFE41EBD4
:103260000E01CCF1200E03FA0EFE10EB0E0051F110
:103270000001CCF1200E29D412FA0EF201EB045118
:10328000BDE8104058BF7047401C1CBFB2F1004F52
:10329000704700280CBF491C20F00100704712EB5A
:1032A000020E43EB030218BF4FF0010E4EEA42023A
:1032B000ACF1200CDCF11E0E54D943FA0CFE10EBDD
:1032C0000E0051F1FF31CCF11E0ED5D50EF1010EDD
:1032D00012FA0EFE404141EB010101EB445C5FEA52
:1032E0005C5C10D910EBDE7001EB045138BFBEF10D
:1032F000004FBDE8104018BF704700280CBF491CA4
:1033000020F00100704730D24FEAD42C11F50011A3
:1033100024F400641BD0B1FA81F20B3AA41AA41E63
:10332000D2F12003914030FA03F31943904001EBAE
:10333000CC71002C01EB0451BDE81040A8BF7047D0
:1033400001F1C0414FF0000001F000417047B0FAB8
:1033500080F310FA03F100D110BDE41A173C4805C0
:10336000C90AE4E701EB045110BD491001EB045117
:10337000BDE810404FEA300002E04FF00001704716
:103380004A0008BF0042F8D0B2F5001F28BF7047BE
:1033900001F000414FF0000070479EEA445F07D003
:1033A00011EA5E0FBDE8104004BF00210020704705
:1033B000BDE8104070B5FFF7E5FD00BF40DFF63E09
:1033C00083F00041104670470000E0FF43004FEAE1
:1033D000D30C4FEA3C0C43401FBF40070CF1605137
:1033E00013F0FE4F70471CF0006F03D100200CF06B
:1033F000004170470CF0004343EA507010B540EABA
:10340000CC0000F002FA00BF000000924FEA000179
:10341000FFF706BE4FF000414FF00000A1F500217C
:103420007047000090EA010F48BF81F0004100F1B1
:103430003E82421A3CBF801A89184FEAD0524FF0A0
:103440007F4C1CEA410FA2EBD15318BF9CEA026FDC
:1034500000F03B804FF0004C4CEA00204CEA012188
:1034600021FA03FC10EB0C0C1ED202F1FF325FEAD2
:103470001C2040EBC25038BF70471CF07F0F4FEA52
:10348000400C18BFBCF17F4F38BF7047C3F1200319
:10349000994008BF20F00100BCF17F4F38BF704752
:1034A000A0F1C04000F0F7B94FEA3C00000A40EB41
:1034B000C25028BF1CF0FF0F4FEA400CE6D018BFE7
:1034C000BCF17F4F38BF7047EAE79CEA026F05D036
:1034D00010EA5C0F08BF00F00040704710B500F024
:1034E00094F900BF64FBBE3E014800F04EBA00BF35
:1034F0000000C07F4FF47F0C1CEAD0121EBF1CEAF4
:10350000D11392EA0C0F93EA0C0F00F0858090EA39
:10351000010F48BF42F4807240F4000C41F40000F7
:103520002CF07F4120F07F4000B58142A2EB0302E6
:103530000FF2081CACEB504EC0F100009EF800E00A
:103540004FEA4E0E00FB0EFC38BF49004FEA2C1C20
:1035500002F5FA020CFB0EF34FEACE1E4FEA112CD5
:103560004FEAC1210EEB635E42EB22420EFB0CFCE4
:103570004FEA1C5300FB03114FEA112C4FEA0131B3
:103580000EFB0CFC4FEADC4C00FB0C11C14228BFC7
:1035900009184CEB03335DF804EB10EB410143EBEE
:1035A000C250B2F57C0F38BF704729D512F0F00F2A
:1035B0001CBF00F1C04000F00040704700818283D2
:1035C0008485868788898B8C8D8E8F919293959632
:1035D00097999A9C9D9FA0A2A3A5A7A8AAACAEB0BC
:1035E000B2B3B5B7B9BCBEC0C2C5C7C9CCCED1D4C1
:1035F000D7D9DCDFE2E6E9ECF0F3F7FAFE000000F1
:103600004FEA400C0CF1807CBCF17E4F28BF704724
:10361000B0F1C04000F03FB990EA010F0CEAD113BD
:1036200048BF42F48072624538BF634507D213F445
:103630007F0F16D080EA010000F00040704710B5FF
:1036400000F0E3F8097EFC3E00F005B880EA0100D6
:1036500000F00040704780EA010000F0004000F0F8
:103660001AB912F47F0F04BF0248704780EA0100C4
:1036700000F011B90000C07F41000B0ED3F19E0293
:1036800008D950F400034FEA032323FA02F048BF9D
:103690004042704710B500F0B8F800BF499224804E
:1036A000002070476FF0004282EA2000704700005F
:1036B00010F0004148BF4042B0FA80F310FA03F224
:1036C000C3F19D030BD051EAC35101EB1220530605
:1036D00038BF704700F1010008BF20F001007047BB
:1036E000B0FA80F310FA03F2C3F19D030AD0D905B2
:1036F00001EB1220530638BF704700F1010008BFEC
:1037000020F00100704700004FF47F0C1CEAD0123B
:103710001EBF1CEAD11392EA0C0F93EA0C0F00F0C3
:10372000478090EA010F48BF42F480724FF0004C8E
:103730004CEA00204CEA012102EB0302A0FB01133A
:10374000A2F50002002918BF43F001035B0028BF67
:103750004FEA330342EB22425FEA132C4CEBC25098
:103760002EBFBCEB436FB2F57C0F70474FEA036C82
:10377000BCF1004F08BF20F00100B2F57C0F38BF4C
:1037800070470BD582F0FF0212F5803FC8BF70472B
:1037900000F1C040D8BF00F00040704700F5000CB9
:1037A0005FEA4C0C48BF7047B0F1C04000F073B8FE
:1037B00090EA010F0CEAD11348BF42F480726245CF
:1037C00038BF634504D280EA010000F00040704732
:1037D00010B500F01AF800BF8900013E00F007B8EC
:1037E00000F009B85FEA410C5FEA1C6C08D080EA7F
:1037F000010000F050B85FEA400C5FEA1C6CF6D1A3
:103800004FF00040A0F5800070470EF1020E2EF040
:10381000030E5EF8044B244204D44FEA4102B2F195
:103820007F4F11D84FEA4003B3F17F4F0CD80ED130
:103830004FEAD07CB2F17F4F0CEB4C0C0CF1020C38
:1038400008BF4CEBD17C04E04FF0080C01E04FEADC
:10385000D17C0CEB4C0324FA03F404F00704B4F11C
:10386000040C06D20EEB840CBDE810404CF0010CA9
:103870006047DFE80CF0070802024FF00040A0F5B7
:10388000800010BD0846420018BFD2F1807288BF88
:1038900000F0004010BDFF2141EAD050C005704744
:1038A00090EA010F48BF81F000413FF5C2AD421AD6
:1038B00004D882F00042A0EB020011444FEAD0523B
:1038C0004FF07F4C1CEA410FA2EBD15318BF9CEA8A
:1038D000026F4AD04FF0004C4CEA00204CEA012124
:1038E00021FA03FCB0EB0C0C0FD412F0FE0F36D013
:1038F0005FEA4C001DD5001240EBC25038BF704744
:103900001CF03F0F18BF70470BE0A2F101025FEA05
:103910001C2040EBC25038BF70471CF07F0F18BF0F
:103920007047C3F12003994014BF401E20F00100EE
:10393000704780084FEA122308BF7047B0FA80FC36
:10394000A2EB0C02CCF1280C60FA0CF093EA122FD7
:1039500004BF00EBC25070474FEAC3707047130AB0
:103960005FEADC1008BF7047F6E79CEA026F04D0FC
:1039700010EA5C0F08BF0020704710B5FFF745FF45
:1039800040DFF63E81F0004070470CF00F03092B3A
:1039900008BF082000F07F800A2B0BD0082B18BF2F
:1039A000704708BF1CF0400F0AD04FF000004FF0E6
:1039B000000170471CF0400F18BF4FF000407047E7
:1039C0001CF0100F08D020F0704300F07F4242EA54
:1039D000D3014FEA4370704700F0604021F07F420E
:1039E00042EA000201F07F4040EA727070474FF0F7
:1039F000FF0C4CF4E06C1CEA11531CBF9CEA030C56
:103A00009445C2BFDA4201EB02517047002B0DD042
:103A1000BCF1000F0FD0002A01F00041A4BF41F01B
:103A2000E04141F07F614FF00000704701F000413C
:103A30004FF00000704750EA01334FF09B0C18BF65
:103A40004CF0806C7FF420A870474FF0FF0212EA20
:103A5000D0521CBF92F0FF038B42C2BFD14200EB99
:103A6000C1507047002A0AD0002B0BD0002900F06B
:103A70000040A4BF40F0FE4040F40000704700F05A
:103A80000040704743024FF00B0C18BF4CF0806CA5
:103A90007FF42AAD70471CF4801F11D01CF4E02F76
:103AA00003D06FEACC31490070474FF04050EFF33C
:103AB000008222F0704242EA000282F300887047DE
:103AC0004FF00000704700000000000000000102FD
:103AD00003040607080900000000010203040000B7
:103AE000003B000800000020180000008C010008C6
:103AF000183B000818000020780B0000A8010008FF
:103B00000000204000000000010000001000000044
:083B1000000000000024F40095
:04000005080001519D
:00000001FF
