:020000040800F2
:10000000700E002069020008993A0008F9300008D3
:10001000293200088104000869540008000000002B
:10002000000000000000000000000000713E000819
:100030008904000800000000A13A000851430008AC
:10004000830200088302000883020008830200087C
:10005000830200088302000883020008830200086C
:10006000830200088302000883020008830200085C
:10007000830200088302000883020008830200084C
:10008000830200088302000883020008830200083C
:10009000830200088302000883020008830200082C
:1000A00083020008A1480008914800088302000864
:1000B000B1480008C1480008830200088302000814
:1000C00083020008830200088302000883020008FC
:1000D00083020008C153000883020008830200085D
:1000E00083020008830200088302000883020008DC
:1000F000F1480008E1480008830200088302000874
:1001000083020008830200088302000883020008BB
:10011000830200088302000883020008D148000817
:10012000830200088302000883020008830200089B
:10013000830200088302000883020008830200088B
:10014000830200088302000883020008830200087B
:10015000830200088302000883020008830200086B
:10016000830200088302000883020008830200085B
:1001700083020008830200088302000800000000D8
:10018000830200088302000883020008830200083B
:10019000830200088302000883020008830200082B
:1001A000830200088302000883020008830200081B
:1001B000830200088302000883020008830200080B
:1001C000830200088302000800F002F800F03CF807
:1001D0000AA090E8000C82448344AAF10107DA45A2
:1001E00001D100F031F8AFF2090EBAE80F0013F0B8
:1001F000010F18BFFB1A43F001031847C46B00003E
:10020000E46B0000103A24BF78C878C1FAD85207CE
:1002100024BF30C830C144BF04680C607047000080
:100220000023002400250026103A28BF78C1FBD8FF
:10023000520728BF30C148BF0B6070471FB506F09A
:1002400090FD1FBD10B510BD00F0E4F81146FFF79A
:10025000F5FF05F00DF900F002F903B4FFF7F2FF26
:1002600003BC00F005F90000094880470948004731
:10027000FEE7FEE7FEE7FEE7FEE7FEE7FEE7FEE756
:10028000FEE7FEE704480549054A064B70470000B3
:1002900019440008C901000870080020700E0020F1
:1002A000700A0020700A002053EA020C00F06980F6
:1002B0002DE9F04B4FF00006002B1FBFB3FA83F57A
:1002C00003FA05F424FA05F65E4012BF1643B2FAAB
:1002D00082F502FA05F4C5F120051EBF22FA05FCDD
:1002E00044EA0C04203556EA044C4FEA144418BF83
:1002F000641C4FF000084FF00009904271EB030CB2
:1003000039D3002919BFB1FA81F701FA07F6B0FA1B
:1003100080F700FA07F6C7F120071EBF20FA07FC96
:1003200046EA0C062037B6FBF4FCA7EB0507103FA6
:1003300007F01F0BCBF120062CFA06F60CFA0BFB8C
:1003400044BFB3460026202FA4BF5E464FF0000BEB
:100350005BEA060C08BF4FF0010B19EB0B0948EBE9
:100360000608ABFB027C06FB02CC0BFB03CCC01BDC
:1003700071EB0C01C1E70B46024641464846BDE819
:10038000F08B13B5084318BF4FF0FF300146AFF3B1
:100390000080BDE81C4070474FF0000200B51346D6
:1003A00094469646203922BFA0E80C50A0E80C5095
:1003B000B1F12001BFF4F7AF090728BFA0E80C5046
:1003C00048BF0CC05DF804EB890028BF40F8042B3F
:1003D00008BF704748BF20F8022B11F0804F18BFAC
:1003E00000F8012B704770477047704710B500F058
:1003F00009F8006810BD10B5044600F003F8046069
:1004000010BD0000004870471000002000487047F1
:10041000100000207546FFF7F9FFAE46050069465B
:10042000534620F00700854618B020B5FFF72AFF95
:10043000BDE820404FF000064FF000074FF00008E5
:100440004FF0000BAC46ACE8C009ACE8C009ACE822
:10045000C009ACE8C00921F007018D46704710B50E
:100460000446AFF300802046BDE81040FFF7F5BE1C
:1004700001491820ABBEFEE72600020070470000CD
:10048000FEE70000000000007047000000000000D0
:10049000EFF3108072B600BFFEE70000000000001E
:1004A00010B54379012B4FF002031BD0037102F00A
:1004B0001002036840F6FE7ED3F800C0D1E9004187
:1004C00021430EFA02F42CEA0404914021431960FE
:1004D000C02191401A6822EA01011960002301211C
:1004E00001714371184610BD80B110B50446007902
:1004F00020B900206071204600F00AF80220207127
:10050000002020610121217110BD00BF0120704732
:1005100080B586B047F200410068C4F200010022B5
:1005200088420592049201D006B080BD43F63000A7
:10053000C4F20200036943F000530361036903F04E
:1005400000530093009B036843F0010303600068BD
:1005500000F0010000900098302001900320CDE9C8
:10056000020201F5C63001A900F0A2F806B080BD74
:1005700081B04FF0000CCDF800C0006800900098EA
:10058000104419B11430009002E000BF0830009010
:10059000009900200B6001B07047000000000000CF
:1005A00080B54279012A4FF0020223D0027101F096
:1005B000100C0268012303FA0CFE0029136843EAB9
:1005C0000E031360116809D03C2301F4701103FA83
:1005D0000CF399420AD1022105E000BF01F03C0171
:1005E0003C2903D1012153681943516000220121A4
:1005F00001714271104680BD70B50446866D00F0F1
:1006000033F994F83510022928D105462068216C69
:100610000268002922F016020260426922F080017D
:10062000416101D1A16C19B1016821F0080101609B
:10063000016821F00101016020680068C00715D041
:1006400000F012F9401B0628F6D320206065032035
:1006500084F83500002184F8341070BD8020606576
:100660000120002184F8341070BD00BFE06D3F21EF
:1006700001FA00F0B060012084F83500002000216C
:1006800084F8341070BD000090F83510022909D1AB
:10069000052180F835100068016821F00101016032
:1006A0000020704780214165012070470000000054
:1006B0002DE9F04F82B000F13E420A2302F1FF77AC
:1006C00042F20042C4F2020243F6004B90424FEA6B
:1006D000B72208BF0923092AC4F2010B38BF4FEA29
:1006E000B72300244FF0010E00270026009306E0F8
:1006F00001360437102E04F1020400F0A9800EFA2E
:1007000006F80B6813EA080FF2D0D1F804A0032210
:100710000AF0030C02FA04F5ACF101036FEA0509D3
:10072000012B0FD88368CD6803EA0903A5402B434A
:100730008360CAF30015436823EA0803B5402B43DE
:10074000436005E0BCF1030F02D14FF0030C22E03F
:10075000C3688D6803EA0903A540BCF1020F43EAB0
:100760000503C36017D16FF003020F2502EA560399
:1007700007F01C02034405FA02FAD3F820C00D6901
:100780002CEA0A0C05FA02F242EA0C021A62D1F8CB
:1007900004A00AF0030C02680CFA04F302EA09024E
:1007A0001AF4403F42EA03020260A1D043F6440338
:1007B0004FF60849C4F20203CFF6FF790F251A68F5
:1007C00042F480421A601A6826F0030302F4804261
:1007D00001920BEB0302019B07F00C0352F809C0D6
:1007E0009D402CEA050C009D05FA03F343EA0C0337
:1007F00042F80930DBF808C04B684CEA0805DA0219
:1008000058BF2CEA080543F60C499A02C4F20109C4
:10081000CBF80850D9F800C04CEA080558BF2CEABC
:1008200008059A03C9F80050DBF804C04CEA080533
:1008300058BF2CEA0805DB03CBF80450DBF8002096
:1008400042EA080558BF22EA0805CBF800504FE7F6
:1008500002B0BDE8F08F0000002A08BF09048161E2
:10086000704700000000000040F66800C2F200007F
:10087000006870470000000040F2000040F6680188
:10088000C2F20000C2F2000100780A681044086059
:10089000704700000000000080B5032000F08CF8D5
:1008A0000F2000F005F800F027F8002080BD0000C0
:1008B00070B540F2000640F20801C2F20006C2F232
:1008C00000014FF47A73044632780968B3FBF2F200
:1008D000B1FBF2F1084601F077F80F2C4FF001055B
:1008E00008D838B94FF0FF3000222146002500F02B
:1008F00033F87460284670BD82B043F64000C4F2FD
:100900000200016841F080510160016801F08051EE
:1009100001910199416841F480414160406800F4CF
:1009200080400090009802B0704700000000000076
:10093000002848BF7047C1B24EF20012CEF200024A
:1009400000F01F0042EAD101012221F0030102FA66
:1009500000F008607047000070B54EF60C5C4FF078
:10096000FF36CEF2000C00F1604505F56445DCF879
:100970000030C3F3022E8EF00703042B28BF04239C
:10098000BEF1030406FA03F321EA030100F00F03AA
:1009900038BF0024043B0028634406FA04F048BF33
:1009A00003F10C05A14022EA000008430001287071
:1009B00070BD0000000000004EF60C514FF6FF0322
:1009C000CEF200010A681A4060F30A2242F0806009
:1009D00040F0FD7008607047B0B582B043F640004B
:1009E00047F20005C4F20200C4F20005016841F0BC
:1009F00080510160006800F08050019001982868E3
:100A000040F480302860FFF72FFF04466868C00379
:100A100006D4FFF729FF001BB0F57A7FF6D910E066
:100A2000286840F400302860FFF71EFF044600BF2E
:100A30006868800308D4FFF717FF001BB0F57A7FC2
:100A4000F6D9032002B0B0BD002002B0B0BD000056
:100A50002DE9F04782B0D0F800A043F69006044696
:100A60005FEACA70C4F202061AD14FF000095FEAC9
:100A70000A3028D556F8040CE16B20F44010B1F58B
:100A8000801F40EA010046F8040CB1FA81F04FEAF9
:100A9000501808BF4FF001095FEACA2018D429E0B6
:100AA00056F8880C20F4000046F8880C606B56F865
:100AB000881C014346F8881CB0FA80F04FEA5019B0
:100AC0005FEA0A30D6D44FF000085FEACA2011D599
:100AD00056F8040C216C20F44000B1F5800F40EA78
:100AE000010008BF4FF00109002908BF4FF00108BD
:100AF00046F8040C5FEA8A6057465CD556F8500CFD
:100B000047F2000740F0805046F8500CC4F200074E
:100B100056F8500C00F0805001900198386840F46D
:100B200080703860FFF7A0FE054600BF3868C0053A
:100B300006D4FFF799FE401B6428F7D928E200BFCE
:100B400056F8200C10F440701BD0216B01F440715A
:100B5000884216D056F8200C56F8201C41F48031FB
:100B600046F8201C56F8201C20F4407021F48031F7
:100B700046F8201C46F8200C56F8200CC00740F020
:100B80000B824FF6FF432768206B56F8882CC0F67F
:100B9000FF7300F4407122F4F81203406FF31F302A
:100BA000B1F5407F08BF1A4346F8882C56F8201C40
:100BB000084346F8200CF8062CD4780438D43804BE
:100BC0003ED4F80344D4B8034AD4780650D4380647
:100BD00056D4F8055CD4B80562D4780568D43805D5
:100BE0006ED4F80475D4B8047CD4780200F1838004
:100BF000B80200F18980780300F1958038020AF08C
:100C0000807000F19B80002808BFB9F1000F40F010
:100C1000BF809FE056F8040C20F0807046F8040C6A
:100C2000A06B56F8041C084346F8040C7804C6D59B
:100C30003068616E20F44030084330603804C0D51D
:100C40003068A16E20F4402008433060F803BAD524
:100C50003068E16E20F4401008433060B803B4D52A
:100C60003068216F20F44000084330607806AED52C
:100C70003068616C20F00300084330603806A8D566
:100C80003068A16C20F00C0008433060F805A2D554
:100C90003068E16C20F0300008433060B8059CD526
:100CA0003068216D20F0C00008433060780596D58B
:100CB0003068616D20F4407008433060380590D58D
:100CC0003068A16D20F4406008433060F8047FF57F
:100CD0008AAF3068E16D20F4405008433060B804BA
:100CE0007FF583AF3068216E20F4404008433060C8
:100CF00078027FF57DAF3068A16F20F080600843F7
:100D00003060B8027FF577AF3068E16F20F00060A7
:100D1000B1F1006F40EA010008BF4FF001083060F8
:100D200078037FF56BAF3068616F20F04070084347
:100D3000306038020AF080707FF565AF3168D4F812
:100D4000802021F0805111433160002808BFB9F1A3
:100D5000000F1DD117F000701AD117F0080008BF5E
:100D6000B8F1000F00F0A68056F8900C20F08050EB
:100D700046F8900CFFF778FD054600BF56F8900C3A
:100D8000800029D5FFF770FD401B6428F6D9FFE0ED
:100D900056F8900C20F0806046F8900CFFF764FD48
:100DA000054600BF56F8900C000105D5FFF75CFD25
:100DB000401B6428F6D9EBE02068C10702D0616BC4
:100DC00000297BD0010340F18D80E16BB1F5801FDC
:100DD00040F088808CE000BF2068010301D5E16B02
:100DE00019B1C1021ED5216CE1B956F8081C56F89C
:100DF000082C01F4403102F0E04263691144A26919
:100E000041EA8311A76A41EA026146F8081C56F8D4
:100E1000041C6FF0FF0221F4F85102EB072211438A
:100E200046F8041C810214D5E16FB1F1006F10D1B6
:100E300056F8081C56F8082C01F0706102F0E042E8
:100E40006369276A114441EA831141EA074146F880
:100E5000081C000718D556F8080C56F8081C00F0B6
:100E6000706001F4403162690844E16940EA82102F
:100E7000E36A40EA017046F8080C56F8040C20F4C6
:100E80004030184346F8040C56F8900C40F080505F
:100E900046F8900CFFF7E8FC044600BF56F8900CAB
:100EA000800007D4FFF7E0FC001B6528F6D3032081
:100EB00084E000BF002002B0BDE8F08756F80C1CAB
:100EC00056F80C2C01F4403102F07062D4E901357F
:100ED000114441EA831141EA057146F80C1C0103F3
:100EE0003FF573AFC1021DD5216CB1F5800F19D14B
:100EF00056F80C1C56F80C2C01F4403102F0E0427C
:100F000063681144E26841EA8311656A41EA02615B
:100F100046F80C1C56F8041C6A1E21F01F011143F0
:100F200046F8041CC10110D556F80C1C56F80C2CC0
:100F300001F0706102F0E04263682569114441EA02
:100F4000831141EA054146F80C1C80010CD560680C
:100F5000A368D4E90321090441EA801040EA026051
:100F600040EA037046F80C0C56F8900C40F0806094
:100F700046F8900CFFF778FC054600BF56F8900C39
:100F800000013FF5EAAEFFF76FFC401B6428F5D97E
:100F9000032002B0BDE8F087FFF766FC054641F28A
:100FA000883700BF56F8200C80073FF5EAADFFF701
:100FB0005BFC401BB8424FF00300F3D902B0BDE820
:100FC000F0870000000000002DE9F041002800F04B
:100FD000CF8043F608080446C4F202080D46D8F84C
:100FE000F80300F00F0088420DD2D8F8F80320F083
:100FF0000F002843C8F8F803D8F8F80300F00F00F2
:10100000A84240F0B5802068810717D5410705D573
:10101000D8F8001041F4E051C8F80010010705D5D8
:10102000D8F8001041F46041C8F80010D8F800105A
:10103000A26821F0F0011143C8F80010C00725D1C3
:10104000D8F8F80300F00F00A8420DD9D8F8F8033B
:1010500020F00F002843C8F8F803D8F8F80300F090
:101060000F00A84240F08480206841071AD400078E
:1010700022D4D8F8000000F00C0008282BD0042857
:101080004CD147F64000C0F27D104BE0606802286A
:1010900062D0012868D158F8081C89036CD401205B
:1010A000BDE8F081D8F80010E26821F4E051114366
:1010B000C8F800100007DCD5D8F80000216920F43A
:1010C000604040EAC100C8F80000D8F8000000F015
:1010D0000C000828D3D158F8042C58F8040C40020E
:1010E00047F6400058F8041CC0F27D105CBF42F285
:1010F0000040C0F2F400C1F3881102F03F02A0FBEF
:1011000001010023FFF7D0F858F8041C0222C1F3B4
:10111000014102EB4101B0FBF1F003E042F200407B
:10112000C0F2F400D8F8001046F68652C0F600026D
:10113000C1F30311515C40F20402C2F20002C84044
:1011400040F20801C2F2000108601068FFF7B0FB2E
:101150000020BDE8F08100BF58F8081C89010BD4BD
:101160000120BDE8F08100BF58F8081C890703D4AE
:101170000120BDE8F08100BFD8F8001021F0030184
:101180000843C8F80000FFF76FFB064641F28837B6
:10119000D8F80000616800F00C00B0EB810F3FF45C
:1011A0004FAFFFF761FB801BB842F1D90320BDE8C8
:1011B000F08100000000000040F2080043F6080142
:1011C000C2F20000C4F2020146F6965200680968B5
:1011D000C0F60002C1F38221515CC8407047000094
:1011E00040F2080043F60801C2F20000C4F2020116
:1011F00046F6965200680968C0F60002C1F3423113
:10120000515CC8407047000010B543F60404C4F2B6
:101210000204606800F00C00082807D0042825D1DB
:1012200047F64000C0F27D1010BD00BF2268206864
:10123000400247F640002168C0F27D105CBF42F2D8
:101240000040C0F2F400C1F3881102F03F02A0FB9D
:1012500001010023FFF728F821680222C1F30141B0
:1012600002EB4101B0FBF1F010BD00BF42F20040C3
:10127000C0F2F40010BD00002DE9F04182B000285A
:1012800068D00446007843F60006C007C4F20206A0
:101290000BD0B06800F00C00042840F09980306852
:1012A000800302D56068002854D0207880071AD5C2
:1012B000B06810F00C0F09D0B06800F00C000828DE
:1012C00040F0A4807068400200F1A0803068800780
:1012D00002D5E06801283DD13068216920F0F8008E
:1012E00040EAC10030602078000737D420784007FA
:1012F00048D4A56955B3B06800F00C00082840F048
:10130000B980012D706825D000F48001E269914216
:1013100020D100F03F01226A91421BD147F6C071F3
:10132000626A0140B1EB821F14D1A16A4FF6FF72CD
:10133000C903914300F44032A1F580318A4209D1BA
:10134000E16A00F07060B0EB016F03D1002002B0E1
:10135000BDE8F081012002B0BDE8F081606900289D
:10136000706F77D040F001007067FFF77DFA054697
:10137000706F8007BAD4FFF777FA401B0228F7D9BD
:1013800015E100BF306C10F0805808D1306C40F08F
:1013900080503064306C00F080500190019847F22A
:1013A0000007C4F200073868C00543D4386840F429
:1013B00080703860FFF758FA054600BF3868C005EE
:1013C00038D4FFF751FA401B6428F7D9EFE000BF8B
:1013D000B06800F00C00082803D1706840023FF5A7
:1013E0005EAF6068002800F0B580B0F5A02F00F077
:1013F000C980B0F5803F00F0C980306820F48030AB
:101400003060306820F48020C3E000BFE06800282E
:10141000306851D040F001003060FFF725FA0546F2
:10142000306880073FF558AFFFF71EFA401B0228CF
:10143000F6D9BCE0A068002850D0052868D0012863
:101440006AD0306F20F001003067306F20F0040068
:1014500065E000BF20F001007067FFF705FA054660
:10146000706F80077FF542AFFFF7FEF9401B02283F
:10147000F6D99CE0306820F080703060FFF7F4F916
:10148000022D05460CD100BF3068800140F19480E8
:10149000FFF7EAF9401B02284FF00300F4D956E7A2
:1014A000306880017FF552AFFFF7DEF9401B02285C
:1014B0004FF00300F4D94AE720F001003060FFF755
:1014C000D3F90546306880077FF50DAFFFF7CCF9FB
:1014D000401B02284FF00300F4D938E7306F20F0AA
:1014E00001003067306F20F004003067FFF7BCF96F
:1014F000054641F2883700BF306F800720D5FFF7DF
:10150000B3F9401BB8424FF00300F5D91FE700BF05
:10151000306F40F004003067306F40F001003067FA
:10152000FFF7A2F9054641F2883700BF306F800708
:1015300006D4FFF799F9401BB842F7D937E000BF4E
:10154000B8F1000F7FF4D5AE306C20F080503064DD
:10155000CFE600BF306820F480303060306820F47F
:1015600080203060FFF780F9054600BF30688003B7
:101570007FF59BAEFFF778F9401B64284FF003001E
:10158000F4D9E4E6306840F480203060306840F4FC
:1015900080303060FFF768F9054600BF306880038F
:1015A0003FF583AEFFF760F9401B6428F6D90320AE
:1015B00002B0BDE8F08100BF04F11C074FF6FF75D3
:1015C0008FCFDB03084323EA050140EA8210A1F52F
:1015D000803140EA0760084340F000507060306896
:1015E00040F080703060FFF73FF9044630688001BA
:1015F0003FF5ACAEFFF738F9001B02284FF00300AF
:10160000F4D9A4E60000000040B1B0B50446406A39
:1016100030B10020206104F1140007E00120704780
:101620006068B0F5827F03D004F11C0000210160E6
:101630000025A56294F85D0020B9204684F85C502E
:1016400000F052F8022084F85D002068D4F80CE025
:10165000BEF5E06F4EF40063026898BF0125B3F554
:10166000706F22F040024FEA053C026001D0002377
:10167000A362D4E90135D4E9042103F4827305F4AB
:1016800004452B4402F002021A4401F00101114406
:10169000A26902F40073E569194405F0380319449E
:1016A000236A03F08003A56A194405F40053194323
:1016B0000423016003EA12410EF47063626A43EA94
:1016C0000C0302F01002656B194305F00803114387
:1016D00019434160C16921F40061C16100202066A5
:1016E000012184F85D10B0BD80B586B045F20002DE
:1016F0000068C4F20102002190420591CDE9031176
:10170000CDE9011122D043F20041C4F20101884227
:1017100046D143F63000C4F20200416941F4005161
:101720004161416901F4005100910099016841F063
:10173000100101600068442100F010000090009842
:1017400041F20000C4F202001EE000BF43F6300088
:10175000C4F20200416941F480114161416901F420
:10176000801100910099016841F02001016000683A
:101770004FF4207100F020000090009841F200002A
:10178000C4F2020000F58060019102210291002163
:101790000391032104910521059101A9FEF788FF1A
:1017A00006B080BD000000002DE9F04381B0044682
:1017B00090F85C00012803D1022001B0BDE8F0835D
:1017C0001D4616460F464FF0010984F85C90FFF75E
:1017D0004BF894F85D10012946D180460120002F76
:1017E00018BF002E00F0C580032084F85D000020A3
:1017F0002066A763A687E6872064A4F84400A4F8BF
:101800004600A168B1F5004FC4E91300206807D174
:10181000016821F040010160016841F480410160EC
:101820000168490603D4016841F040010160616824
:10183000731EB1FA81F1E268B3FA83F349095B09D7
:10184000B2F5E06F41EA03013ED931B137F8021B2E
:10185000C160A763E08F0138E087E08F002871D076
:10186000681C0ED11FE000BF022082E0A16B31F89E
:10187000022BC260A163E08F0138E087E08F00286F
:1018800060D0206881688907F0D4FEF7EDFFA0EBF7
:101890000800A842F2D303206BE000BFFEF7E4FF8C
:1018A000E08F00284ED0206881688907F6D5A16BAB
:1018B00031F8022BC260A163E08F0138E087E08F2E
:1018C0000028F0D13EE000BF89B1E18F02294FF638
:1018D000FE7103D337F8022BC26004E03A7801317D
:1018E0000273A06B471CA763E08F0844E087E08F7A
:1018F00040B3681C4BD04FF6FE70461C08E000BF9A
:10190000FEF7B2FFA0EB0800A8425BD2E08FC8B19F
:10191000216888688007F3D5E08F0228A06B05D383
:1019200030F8022BCA604FF6FE7104E000780873AD
:101930003146A06B0130A063E08F0844E087E08F60
:101940000028E5D120462946424602F001F9002848
:101950001CBF20202066A06838B9002000902068B5
:10196000C1680091806800900098206E002818BF20
:10197000012084F85D90002184F85C1001B0BDE87E
:10198000F08300BFFEF770FFE08F0028DAD02068F8
:1019900081688907F6D5E18F0129A16B08D931F853
:1019A000022BC260A163E08F0238E087ECE700BF42
:1019B00009780173A06B0130A063E08F0138E087E4
:1019C000E2E700BF0320D4E7411E0020B0EB116F17
:1019D00002D00120704700BF4EF21002F023CEF279
:1019E000000251604EF62351CEF200010B70072128
:1019F0009060116070470000704700000000000018
:101A00007047000000000000704700000000000068
:101A1000B0B590F83C20012A4FF002025BD080F86C
:101A20003D2040F2004C0268C4F2010C42F4806395
:101A300063455368D2F808E002BF23F470034C6892
:101A4000234341F2FF740D68C4F2000423F07003D5
:101A5000A24243EA050353600CDC40F2FF73C4F278
:101A600000039A4216DCB2F1804F29D040F20043C5
:101A700018E000BF40F2FF33C4F201039A4217DCC2
:101A800041F60003C4F200039A4219D00023C4F2C5
:101A9000010309E040F60003C4F200039A420FD0AC
:101AA00040F60043C4F200039A4209D00DE000BFA3
:101AB00044F20003C4F201039A4201D0624504D10A
:101AC0002EF080038968194391600022012180F87B
:101AD0003D1080F83C201046B0BD00000000000022
:101AE00060B310B5044690F83D0028B9002084F892
:101AF0003C00204600F024F8022084F83D002068D5
:101B0000211D02F0FDFE012084F8480084F83E000B
:101B100084F83F0084F8400084F8410084F84200D3
:101B200084F8430084F8440084F8450084F84600B3
:101B300084F8470084F83D00002010BD0120704764
:101B400080B582B041F6FF310068C4F200018842DE
:101B500028DC40F6FF71C4F2000188424EDCB0F18F
:101B6000804F00F0938040F20041C4F200018842AF
:101B700040F0C98043F640000022C4F20200016830
:101B800041F0020101600068002100F002000190B4
:101B900001981D20FEF7E0FE1D2002B0BDE8804048
:101BA000FEF7C6BE44F2FF31C4F20101884249DCAF
:101BB00041F60041C4F20001884200F07F8042F209
:101BC0000001C4F20001884240F09D8043F64000CD
:101BD0000022C4F20200016841F4807101600068D3
:101BE000002100F48070019001982D20FEF7B4FED2
:101BF0002D2002B0BDE88040FEF79ABE41F2000100
:101C0000C4F20001884271D041F20041C4F20001E7
:101C1000884278D143F640000022C4F202000168F5
:101C200041F0200101600068002100F020000190D7
:101C300001983720FEF790FE372002B0BDE88040C3
:101C4000FEF776BE44F20041C4F2010188425DD045
:101C500044F60001C4F20101884254D143F6400029
:101C60000022C4F20200416841F4802141604068D2
:101C7000002100F48020019001981A20FEF76CFEEC
:101C80001A2002B0BDE88040FEF752BE43F6400085
:101C90000022C4F20200016841F001010160006805
:101CA000002100F00100019001981C20FEF754FE75
:101CB0001C2002B0BDE88040FEF73ABE43F640006B
:101CC0000022C4F20200016841F080010160006856
:101CD000002100F08000019001982C20FEF73CFECE
:101CE0002C2002B0BDE88040FEF722BE43F6400043
:101CF000C4F20200016841F010010160006800F0C8
:101D000010000190019802B080BD00BF43F6400072
:101D10000022C4F20200416841F400314160406891
:101D2000002100F40030019001981920FEF714FE04
:101D3000192002B0BDE88040FEF7FABD00000000A7
:101D400090F83D10012917D1022180F83D1001685B
:101D500041F2FF70C4F2000081420FDC40F2FF70DC
:101D6000C4F20000814217DCB1F1804F2CD040F268
:101D70000040C4F2000025E00120704740F2FF302F
:101D8000C4F20100814213DC41F60000C4F20000FD
:101D9000814219D0002013E040F60000C4F2000098
:101DA000814211D040F60040C4F200000AE000BFBA
:101DB00044F20000C4F20100814205D040F200402C
:101DC000C4F2010081420BD107228868C0F20102EF
:101DD00002400020062A18BFB2F5803F00D17047AC
:101DE000086840F001000860002070470000000013
:101DF00090F83D1001291BD1022180F83D100168A7
:101E000041F2FF70C4F200008142C86840F0010056
:101E1000C8600FDC40F2FF70C4F20000814217DCA2
:101E2000B1F1804F2CD040F20040C4F2000025E018
:101E30000120704740F2FF30C4F20100814213DC00
:101E400041F60000C4F20000814219D0002013E0E6
:101E500040F60000C4F20000814211D040F600407C
:101E6000C4F200000AE000BF44F20000C4F2010026
:101E7000814205D040F20040C4F2010081420BD102
:101E800007228868C0F2010202400020062A18BF1B
:101E9000B2F5803F00D17047086840F0010008604B
:101EA000002070470000000080B590F83C20012A17
:101EB0004FF0020269D080F83D208822D0F800C09F
:101EC000CFF6FE72DCF808301A40CCF808200B6818
:101ED0004F2B29DC1F2B45DD202B18BF302B44D086
:101EE000402B40F0AD80D1F804E0C968DCF8203028
:101EF000DCF8202022F00102CCF82020DCF81820A9
:101F000022F0F00242EA011123F00A02CCF8181084
:101F100042EA0E01CCF82010DCF8081041F047012D
:101F200021F0300128E000BF6F2B31DDB3F5005FF9
:101F300052D0B3F5805F21D0702B40F08180D1E981
:101F400001E3C968DCF8082043EA0E0322F47F426B
:101F500043EA01211143CCF80810DCF8081041F0E5
:101F6000770109E00BB1102B6AD1DCF8081021F0E1
:101F70007001194341F00701CCF80810002201213B
:101F800080F83D10002180F83C10104680BD00BF55
:101F9000502B35D0602B53D1D1F804E0C968DCF860
:101FA000203023F01003CCF82030DCF81830DCF8B7
:101FB000202023F4704322F0A00243EA0131CCF840
:101FC000181042EA0E11CCF82010DCF8081041F08D
:101FD000670121F01001CFE7D1E901E3C968DCF81E
:101FE000082043EA0E0322F47F4243EA0121114311
:101FF000CCF80810DCF8081041F48041BCE700BFC1
:10200000D1F804E0C968DCF82030DCF8202022F0A8
:102010000102CCF82020DCF8182022F0F00242EA7D
:10202000011123F00A02CCF8181042EA0E01CCF894
:102030002010DCF8081041F0570121F020019BE747
:1020400001229CE700000000704700000000000033
:1020500010B5044600680169890744BFC1685FEA9A
:1020600081713FD40169490744BFC1685FEA41718A
:1020700044D40169090744BFC1685FEA01714BD4C8
:102080000169C90644BFC1685FEAC16150D40169F2
:10209000C9071CBFC1685FEAC17157D10169090650
:1020A00044BFC1685FEA016158D40169C90544BFF2
:1020B000C1685FEA016159D40169490644BFC1683A
:1020C0005FEA41615AD40169890646BFC1685FEA87
:1020D000816110BD6FF0200101612046BDE8104014
:1020E000FFF792BC6FF00201016101212177806945
:1020F00080074BD02046FFF7A7FF4DE06FF00401AB
:10210000016102212177806910F4407F48D0204688
:10211000FFF79AFF4AE000BF6FF008010161042158
:102120002177C069800745D02046FFF78DFF47E043
:102130006FF01001016108212177C06910F4407F20
:1021400042D02046FFF780FF44E000BF6FF001015E
:102150000161204600F0F4FA20689FE76FF08001EB
:1021600001612046FFF74CFC20689EE76FF4807108
:1021700001612046FFF740FC20689DE76FF04001B9
:102180000161204600F058FB20689CE7204600F0E3
:102190004FF8204600F018FA00202077206861E709
:1021A000204600F045F8204600F00EFA0020207787
:1021B00020685EE7204600F03BF8204600F004FA75
:1021C0000020207720685BE7204600F031F82046A9
:1021D00000F0FAF900202077206858E7000000009E
:1021E00080B586B040F200410068C4F20001884228
:1021F00002D006B080BD00BF43F63000C4F202003A
:10220000026842F0040202600068002200F004004C
:10221000019001984020019002200290059001F564
:10222000013001A9CDE90322FEF742FA06B080BDD4
:1022300070470000000000002DE9F04190F83C30AC
:10224000012B03D10220BDE8F08100BF4FEAB202AA
:10225000052A00F23981DFE812F007004700890003
:10226000CB0001013F0100BF036840F2004643F488
:102270008065C4F201061A6AB54222F001021A62B0
:102280001A461C6AD3F804E024F0020452F818CF6E
:102290008F6844EA070401BFCF6824F00C0427F0DC
:1022A00004073C43B5420D6801BF2EF4407ED1E9DE
:1022B000056746EA0E0646EA070E4FF68C76CFF61D
:1022C000FE76C3F804E00CEA06072F439F614F68CF
:1022D00009695F631C629F6947F008079F619F69F6
:1022E00027F004079F612EE1036840F2004643F4A3
:1022F0008065C4F201061A6AB54222F010021A6221
:102300001A461C6AD3F804C024F0200452F818EFCF
:102310008F6844EA071407D1CF686FF0400824F0B3
:10232000C00408EA07173C43B5420D6801BFD1E974
:1023300005673E432CF4406747EA860C48F6FF46A3
:10234000CFF6FF66C3F804C00EEA060747EA052782
:102350009F614F6809699F631C629F6947F400672A
:102360009F619F6927F480679F61EBE0036840F2FB
:10237000004643F48065C4F201061A6AB54222F4AD
:1023800080721A621A461C6AD3F804C024F40074DE
:1023900052F81CEF8F6844EA072408D1CF6840F256
:1023A000FF483F0224F4406427EA08073C43B54253
:1023B0000D6801BFD1E905673E432CF4405747EA59
:1023C000061C4FF68C76CFF6FE76C3F804C00EEAF4
:1023D00006072F43DF614F680969DF631C62DF690D
:1023E00047F00807DF61DF6927F00407DF61AAE033
:1023F000036840F2004543F48067C4F201051A6A9D
:10240000AF4222F480521A621A46D3F820C05C68A8
:1024100052F81C6F0D68D1F808E002BF4F6924F430
:10242000804444EA871448F6FF47CFF6FF675C60B4
:102430003E402CF4005746EA0524DC614E680969E9
:102440001E6447EA0E371F62DF6947F40067DF61E9
:10245000DF6927F48067DF6174E000BF036840F242
:10246000004543F48067C4F201051A6AAF4222F4C2
:1024700080321A621A46D3F820C05C6852F8546F52
:102480000D68D1F808E002BF4F6924F4803444EAB3
:1024900007244FF68C77CFF6FE775C6003373E401B
:1024A0002CF4003746EA05045C654E6809699E65B0
:1024B00047EA0E471F625F6D47F008075F655F6D73
:1024C00027F004075F653EE00121002280F83C20F0
:1024D0000846BDE8F08100BF036840F2004543F4C0
:1024E0008067C4F201051A6AAF4222F480121A62B0
:1024F0001A46D3F820C05C6852F8546F0D68D1F8C2
:1025000008E002BF4F6924F4802444EA872448F697
:10251000FF47CFF6FF675C6007F540773E402CF43D
:10252000001746EA05245C654E680969DE6547EADE
:102530000E571F625F6D47F400675F655F6D27F49C
:1025400080675F650902136819431160002100224A
:1025500080F83C200846BDE8F08100000000000043
:1025600060B310B5044690F83D0028B9002084F807
:102570003C00204600F024F8022084F83D0020684A
:10258000211D02F0BDF9012084F8480084F83E00C6
:1025900084F83F0084F8400084F8410084F8420049
:1025A00084F8430084F8440084F8450084F8460029
:1025B00084F8470084F83D00002010BD01207047DA
:1025C000704700000000000070470000000000009D
:1025D00071B10A1F4FEAB202032A2FD8DFE802F0D6
:1025E0000210182800F13F031B78012B0DD114E0D5
:1025F00090F83E20012A08D1022280F83E2032E0E5
:1026000000F140031B78012B07D00120704700BF69
:1026100000F141031B78012BF7D1032A14D8DFE81E
:1026200002F003171B1F00BF022280F83F201AE0B0
:1026300000F142031B78012BE7D1EEE700F14303E1
:102640001B78012BE9D0E0E7022280F843200AE062
:10265000022280F8402006E0022280F8412002E0B9
:10266000022280F84220026801F01F00012101FAD5
:1026700000F0116A8143116241F2FF71C4F200015E
:102680008A42116A40EA010010620FDC40F2FF70DA
:10269000C4F2000082421BDCB2F1804F3ED040F217
:1026A0000040C4F20000824238D043E040F2FF30E4
:1026B000C4F20100824219DC41F60000C4F20000BD
:1026C00082422BD00020C4F2010082421AD031E0B5
:1026D00040F60000C4F2000082421FD040F60040E5
:1026E000C4F20000824219D024E000BF44F200008E
:1026F000C4F20100824211D040F20040C4F2010055
:10270000824217D140F2004142F48060C4F20101DC
:10271000536C884243F4004050640BD10721906809
:10272000C0F2010101400020062918BFB1F5803F29
:1027300000D17047106840F0010010600020704721
:10274000B0B540F270010446C2F20001006840F2E8
:10275000D0054A69C2F20005904208D195F82E20B2
:10276000022A04D11431002001F086FB206840F2D7
:102770000851C2F20001096888420BD195F86A102D
:10278000022907D140F208510120C2F2000101F0F4
:1027900073FB206840F24031C2F2000109688842B0
:1027A0000BD195F8A610022907D140F24031022042
:1027B000C2F2000101F060FB206840F28C31C2F2ED
:1027C0000001096888420BD195F8E210022907D16F
:1027D00040F28C310320C2F2000101F04DFB206871
:1027E00040F2D831C2F20001096888420BD195F855
:1027F0001E11022907D140F2D8310420C2F2000193
:1028000001F03AFB206840F22441C2F2000109685D
:1028100088420DD195F85A01022818BFB0BD40F288
:1028200024410520C2F20001BDE8B04001F024BB04
:10283000B0BD000000000000704700000000000074
:10284000704700000000000070470000000000001A
:10285000B0B50446006840F62F02C169056801EA78
:10286000020305F0200E202B836809D1BEF1000F72
:1028700006D0A16E19B32046BDE8B040084700BF9E
:1028800040F60F02114209D040F2201203F0010C71
:10289000C0F200422A4012EB0C0211D1226E012A32
:1028A00005D111F0100218BF15F010024AD1080628
:1028B00010D515F080000DD0E16E0029DBD1B0BD40
:1028C000CA0718BF15F4807240F098818A0700F19A
:1028D0009F81A8E14806F2D515F0400008BFB0BDC1
:1028E000206850E8000F216820F0400041E8000215
:1028F000F2B1206850E8000F216820F0400041E864
:102900000002002A1FBF206850E8000F216820F055
:1029100040001CBF41E80002002A09D0206850E8AE
:10292000000F216820F0400041E80002002AD7D1C2
:102930002020E0670020E0662046BDE8B04000F0BF
:10294000D7BB00BF102101628068400600F18E8075
:10295000B4F85800B4F85A10B4F85A20002A18BF36
:102960008842ACD0401A216851E8001F226821F447
:10297000907142E80013F3B1216851E8001F22680A
:1029800021F4907142E80013002B1FBF216851E829
:10299000001F226821F490711CBF42E80013002B35
:1029A00009D0216851E8001F226821F4907142E8A3
:1029B0000013002BD7D1216851E8021F226821F0B3
:1029C000010142E80213F3B1216851E8021F2268B5
:1029D00021F0010142E80213002B1FBF216851E8DA
:1029E000021F226821F001011CBF42E80213002BE4
:1029F00009D0216851E8021F226821F0010142E854
:102A00000213002BD7D12021C4F8801000212166A9
:102A1000A166216851E8001F226821F0100142E8F8
:102A20000013F3B1216851E8001F226821F0100162
:102A300042E80013002B1FBF216851E8001F2268E5
:102A400021F010011CBF42E80013002B09D02168BF
:102A500051E8001F226821F0100142E80013002B0A
:102A6000D7D181B202206066C3E000BF606F016809
:102A700049688AB2002A3FF422AFB4F858309A422B
:102A8000BFF41DAFA4F85A10C069B0F5807F00F004
:102A9000A880206850E8000F216820F4807041E889
:102AA0000002F2B1206850E8000F216820F4807025
:102AB00041E80002002A1FBF206850E8000F21688B
:102AC00020F480701CBF41E80002002A09D0206871
:102AD00050E8000F216820F4807041E80002002ACD
:102AE000D7D1206850E8020F216820F0010041E8AA
:102AF0000202F2B1206850E8020F216820F00100C4
:102B000041E80202002A1FBF206850E8020F216836
:102B100020F001001CBF41E80202002A09D0206811
:102B200050E8020F216820F0010041E80202002A6B
:102B3000D7D1206850E8020F216820F0400041E81A
:102B40000202F2B1206850E8020F216820F0400034
:102B500041E80202002A1FBF206850E8020F2168E6
:102B600020F040001CBF41E80202002A09D0206882
:102B700050E8020F216820F0400041E80202002ADC
:102B8000D7D12020C4F8800000202066206850E8BB
:102B9000000F216820F0100041E80002F2B1206827
:102BA00050E8000F216820F0100041E80002002AE0
:102BB0001FBF206850E8000F216820F010001CBFE4
:102BC00041E80002002A09D0206850E8000F21687F
:102BD00020F0100041E80002002AD7D1606FFDF715
:102BE0000BFD02206066B4F85800B4F85A10401A81
:102BF00081B22046BDE8B040FFF722BE012202624A
:102C0000D4F8842042F00102C4F884208A070AD54F
:102C1000BCF1000F07D002220262D4F8842042F0F7
:102C20000402C4F884204A070AD5BCF1000F07D07B
:102C300004220262D4F8842042F00202C4F8842004
:102C40000A070DD54EEA0C02B2FA82F2520907D1F8
:102C500008220262D4F8842042F00802C4F88420DA
:102C60000A050BD515F0806208D04FF400620262AD
:102C7000D4F8842042F02002C4F88420D4F88420C0
:102C8000002A3FF41CAE11F0200118BFBEF1000F66
:102C900040F0D480D4F88410806800F0400001F047
:102CA0002801401806D12046FFF7CEFD0020C4F8C9
:102CB0008400B0BD206850E8000F216820F49070B7
:102CC00041E80002F2B1206850E8000F216820F4CA
:102CD000907041E80002002A1FBF206850E8000FF2
:102CE000216820F490701CBF41E80002002A09D03E
:102CF000206850E8000F216820F4907041E800023D
:102D0000002AD7D1206850E8020F216820F0010086
:102D100041E80202F2B1206850E8020F216820F079
:102D2000010041E80202002A1FBF206850E8020F9C
:102D3000216820F001001CBF41E80202002A09D0EE
:102D4000206850E8020F216820F0010041E80202EB
:102D5000002AD7D1206E012827D1206850E8000F23
:102D6000216820F0100041E80002F2B1206850E82C
:102D7000000F216820F0100041E80002002A1FBF68
:102D8000206850E8000F216820F010001CBF41E8C7
:102D90000002002A09D0206850E8000F216820F0C6
:102DA000100041E80002002AD7D12020C4F880009A
:102DB000002020662168A0668868400638D5206813
:102DC00050E8020F216820F0400041E80202F2B111
:102DD000206850E8020F216820F0400041E802021C
:102DE000002A1FBF206850E8020F216820F0400031
:102DF0001CBF41E80202002A09D0206850E8020FF7
:102E0000216820F0400041E80202002AD7D1606F1B
:102E100070B144F62131C0F600010165FDF734FCC4
:102E200000283FF44CAD606F016DBDE8B04008472D
:102E30002046BDE8B040FFF707BD00BFA16E0029E6
:102E40003FF428AF20468847206823E700000000B1
:102E5000B0B582B0A0B10446C06F28B9002084F894
:102E60007800204600F048F82420E06720680168D8
:102E700021F001010160204601F0B6FF012803D1D5
:102E80000125284602B0B0BD606A10B1204601F0AD
:102E9000D7FD20680025416821F490414160816898
:102EA00021F02A018160016841F001010160C4F84C
:102EB0008450FDF7D9FC2168096809070ED503463F
:102EC0004FF4001100226FF07E400090204602F087
:102ED00067F918B10325284602B0B0BD2020E0678D
:102EE000C4F880002566656684F87850284602B0EC
:102EF000B0BD000000000000B0B5A6B004466846B2
:102F000041F2000504308021C4F20105FDF744FAC6
:102F10002068A84202D026B0B0BD00BF402000907B
:102F20006846FDF795FD08B1FDF7B2FA43F63000AB
:102F3000C4F20200416941F010014161416901F0B0
:102F4000100121912199016841F00201016000689E
:102F500021A900F0020021902198C0202190022098
:102F6000229000202390032024900720259005F52F
:102F70007440FDF79DFB252000210022FDF7ECFCAD
:102F80002520FDF7D5FC26B0B0BD000000000000F4
:102F900080B5D0F88030202B06D10123002918BF3E
:102FA000002A03D1184680BD022080BD002303669D
:102FB00003685B681B0205D402F036F8002318464C
:102FC00080BD00BF036853E800CFD0F800E04CF0AC
:102FD00080634EE8003CBCF1000FEDD0036853E87D
:102FE00000CFD0F800E04CF080634EE8003CBCF12C
:102FF000000F1FBF036853E800CFD0F800E04CF08B
:1030000080631CBF4EE8003CBCF1000FD4D00368C5
:1030100053E800CFD0F800E04CF080634EE8003C6D
:10302000BCF1000FCED1C7E710B540F25451006893
:10303000C2F200010968884218BF10BD40F64C0476
:1030400040F25451C2F20004C2F20001204602F0E4
:10305000CFF9E07903283ED194F9123040F23821BB
:10306000C2F200019FED211A00EE103A94F91430DB
:103070004FF07E520020C1E90020B8EEC00A8860FF
:1030800008614A6180EE010A886181ED030A00EE61
:10309000103A94F916308A62C1E90800B8EEC00A05
:1030A0008863C1E90C00CA6380EE010A81ED070A5A
:1030B00000EE103AB8EEC00A80EE010A81ED0B0A6C
:1030C0000121A1762072C4F80900C4F80D00C4F8EB
:1030D0001100C4F8150040F2545004F11901C2F275
:1030E00000000122BDE81040FFF752BF00007A4403
:1030F0007047000000000000FEE700000000000034
:1031000010B582B0033803285ED89FED461A20EE32
:10311000010ABDEEC00A10EE101ADFE800F0032B22
:10312000575B00BF01F5805041F20001C4F202017B
:10313000ADF8060001F58064402101222046FDF72C
:103140008BFB4FF4807100222046FDF785FB40F297
:10315000DC200DF10601C2F2000002220A23FEF774
:1031600023FB4FF4807101222046FDF775FB4021BF
:1031700052E000BFA1F5E04041F20001C4F20201BB
:10318000ADF8060001F58064402101222046FDF7DC
:1031900063FB4FF4807100222046FDF75DFB40F297
:1031A000DC200DF10601C2F2000002220A23FEF724
:1031B000FBFA4FF4807101222046FDF74DFB4021C0
:1031C00000222046FDF748FB02B010BD01F58050FB
:1031D00002E000BFA1F5E04041F20004ADF80600B6
:1031E000C4F20204202101222046FDF735FB102104
:1031F00000222046FDF730FB40F278200DF1060159
:10320000C2F2000002220A23FEF7CEFA10210122A8
:103210002046FDF721FB202100222046FDF71CFB64
:1032200002B010BD00007A44FEE70000000000007C
:103230002DE9F04381B02DED0C8BB0EE61BAB0EE0C
:1032400041AAB0EE608AB0EE409A40F2DC550446E6
:103250000528C2F200053FD8DFE804F004101C2660
:10326000364A00BF4FF07F5028614FF080406861C0
:10327000B5EE40BAF1EE10FA33DB42E049F69A10AF
:10328000C4F21900C5E91800B5EE40BAF1EE10FA23
:1032900027DB36E04FF07F50C5E92C00B5EE40BA91
:1032A000F1EE10FA1DDB2CE049F69A10C3F6197006
:1032B000C5F800014FF07E50C5F80401B5EE40BAE4
:1032C000F1EE10FA0DDB1CE04FF07F50C5F8500115
:1032D0004FF07E50C5F85401B5EE40BAF1EE10FA49
:1032E0000FDA2046B1EE4BBA01F0EEF80CE000BF69
:1032F0004FF07F50C5E96800B5EE40BAF1EE10FA24
:10330000EFDB204601F094F8C4EB041040F2D0014A
:10331000C2F200019FED460A01EB80008BEE000A2D
:1033200004EB840190ED001A90ED0ADAB8EE411A30
:103330001AEE100A05EB01160C0120EE01CA86ED0B
:10334000019A86ED028A86ED03BABDEECC0A86EDBF
:10335000060A10EE107A03F069FC9FED310B53EC76
:10336000102B02F029FF02F041FE00EE100A3DEEA4
:103370000D1AB6EECC2A285139EE083A20EE000A92
:1033800021EE091A22EE082A80EE010A82EE031AC3
:10339000BDEEC00ABDEEC11A86ED0E0A86ED0F1A0B
:1033A00010EE104A11EE101A8C4203DDCD1B0020E6
:1033B0000C462BE0B8EEC00A384620EE490A80EEF3
:1033C000080ABDEEC00A10EE105A03F0E8F8804675
:1033D0002846894603F0E3F89FED130B0B46494658
:1033E00057EC102B0246F80F60F3DF73404603F0F2
:1033F0002FFB804620460F4603F0D1F802460B46CD
:103400004046394603F024FB03F06CF83062C6E90D
:103410000A453563BDEC0C8B01B0BDE8F08300BFFD
:103420007214200A66FC2240000000000000000028
:103430000000B4430000000010B5C0EB001140F2E2
:10344000D002C2F2000200EB800002EB810191ED9C
:103450000A0A40F2DC51C2F2000130EE000A01EB30
:10346000001494ED011A80EE010A10EE100A03F028
:10347000DDFB41EC100B02F07BFD51EC100B9FEDDE
:103480000A0B53EC102B03F019F99FED090B53ECC9
:10349000102B03F013F903F025F80021E1616162BC
:1034A000C4E91000E16410BD0000000000407F404E
:1034B0000000000000208540052800F2DB82F0B506
:1034C00081B02DED028B0446DFE814F006005400B5
:1034D000A400F60048019A0140F2D00540F2DC5603
:1034E000C2F20005C2F20006002795ED0A0A96ED29
:1034F000011A30EE000A85F82C7085F82F7085F8D7
:10350000387080EE010A10EE100A03F08FFB41ECD8
:10351000100B02F02DFD51EC100B9FEDF30B53EC53
:10352000102B03F0CBF89FEDF20B53EC102B03F0B4
:10353000C5F802F0D7FF40F284014FF6FF73C2F2E4
:103540000001F761776298420A68F764C6E91000E3
:1035500085F839705762B8BF0346D36296ED048A86
:10356000CB60B5EE408AF1EE10FA80F29B819FEDC0
:10357000F20A07E240F2D00540F2DC56C2F2000542
:10358000C2F20006002795ED190A96ED151A30EEE5
:10359000000A85F8687085F86B7085F8747080EEA5
:1035A000010A10EE100A03F041FB41EC100B02F08F
:1035B000DFFC51EC100B9FEDCC0B53EC102B03F008
:1035C0007DF89FEDCB0B53EC102B03F077F802F056
:1035D00089FF012185F8751040F208514FF6FF73FD
:1035E000C2F20001F766776798420A68C6F89C70D5
:1035F000C6E924005762B8BF0346D36296ED188A25
:10360000CB60B5EE408AF1EE10FA80F25B819FED5F
:10361000CA0AC9E140F2D00540F2DC56C2F2000508
:10362000C2F20006002795ED280A96ED291A30EE21
:10363000000A85F8A47085F8A77085F8B07080EE50
:10364000010A10EE100A03F0F1FA41EC100B02F03F
:103650008FFC51EC100B9FEDA40B53EC102B03F0DF
:103660002DF89FEDA30B53EC102B03F027F802F07D
:1036700039FF022185F8B11040F240314FF6FF7357
:10368000C2F20001C6F8BC70C6F8C47098420A685D
:10369000C6F8EC70C6E938005762B8BF0346D3627B
:1036A00096ED2C8ACB60B5EE408AF1EE10FA80F2EE
:1036B00023819FEDA10A89E140F2D00540F2DC565A
:1036C000C2F20005C2F20006002795ED370A96ED1A
:1036D0003D1A30EE000A85F8E07085F8E37085F851
:1036E000EC7080EE010A10EE100A03F09FFA41EC34
:1036F000100B02F03DFC51EC100B9FEDDF0B53EC77
:10370000102B02F0DBFF9FEDDE0B53EC102B02F0D1
:10371000D5FF02F0E7FE032185F8ED1040F28C3171
:103720004FF6FF73C2F20001C6F80C71C6F81471AF
:1037300098420A68C6F83C71C6E94C005762B8BFA7
:103740000346D36296ED408ACB60B5EE408AF1EE37
:1037500010FA80F2E1809FEDCE0A49E140F2D005F7
:1037600040F2DC56C2F20005C2F20006002795EDD9
:10377000460A96ED511A30EE000A85F81C7185F85C
:103780001F7185F8287180EE010A10EE100A03F00F
:103790004DFA41EC100B02F0EBFB51EC100B9FEDDE
:1037A000B60B53EC102B02F089FF9FEDB50B53ECD9
:1037B000102B02F083FF02F095FE042185F82911F9
:1037C00040F2D8314FF6FF73C2F20001C6F85C71C7
:1037D000C6F8647198420A68C6F88C71C6E9600040
:1037E0005762B8BF0346D36296ED548ACB60B5EEFC
:1037F000408AF1EE10FA80F2A1809FEDA50A09E15E
:1038000040F2D00540F2DC56C2F20005C2F20006DA
:10381000002795ED550A96ED651A30EE000A85F8F9
:10382000587185F85B7185F8647180EE010A10EEBD
:10383000100A03F0FBF941EC100B02F099FB51EC7C
:10384000100B9FED8D0B53EC102B02F037FF9FED0B
:103850008C0B53EC102B02F031FF02F043FE0521DC
:1038600085F8651140F224414FF6FF73C2F2000162
:10387000C6F8AC71C6F8B47198420A68C6F8DC7133
:10388000C6E974005762B8BF0346D36296ED688AF2
:10389000CB60B5EE408AF1EE10FA5FDA9FED7C0A5C
:1038A000CAE000BF18EE100A03F0C0F99FED760BD6
:1038B00053EC102B03F0F3F900285FD09FED750A4D
:1038C00060E000BF18EE100A03F0B0F99FED6E0B38
:1038D00053EC102B03F0E3F9002861D09FED6D0A43
:1038E00062E000BF00BF00BF0000000000407F405A
:1038F000000000000020854018EE100A03F096F941
:103900009FED610B53EC102B03F0C9F9002859D03F
:103910009FED600A5AE000BF18EE100A03F086F926
:103920009FED590B53EC102B03F0B9F900285BD035
:103930009FED580A5CE000BF0000000018EE100A7E
:1039400003F074F99FED500B53EC102B03F0A7F923
:1039500000285BD09FED4F0A5CE000BF18EE100A14
:1039600003F064F99FED480B53EC102B03F097F92B
:1039700000285DD09FED470A5EE000BFB7EE060A63
:1039800028EE000ADFED420A01209FED421A02F004
:1039900083FA05F1300605F12F072E3559E000BFF7
:1039A000B7EE060A28EE000ADFED390A02209FED85
:1039B000391A02F071FA05F16C0605F16B076A35E8
:1039C00047E000BFB7EE060A28EE000ADFED300A36
:1039D00003209FED301A02F05FFA05F1A80605F109
:1039E000A707A63535E000BFB7EE060A28EE000AA5
:1039F000DFED270A04209FED271A02F04DFA05F1AA
:103A0000E40605F1E307E23523E000BFB7EE060A5E
:103A100028EE000ADFED1E0A05209FED1E1A02F0B7
:103A20003BFA05F5907605F21F1705F58F7510E046
:103A3000B7EE060A28EE000ADFED150A06209FED14
:103A4000151A02F029FA05F5AE7605F25B1705F5B1
:103A5000AD75204600F0CCFD204602F01DF9022095
:103A600028700120387000203070BDEC028B01B04E
:103A7000BDE8F040704700BF0000000000407F40FC
:103A800000000000002085403333333333330340DC
:103A90000000000033335340FEE700000000000048
:103AA000704700000000000045F6294149F28D7280
:103AB000C3F68F51016042F6F601C3F62E62C3F6DB
:103AC0009C61C0E901214AF2F0720021C3F68662CE
:103AD0004161C0E906124CF28F22C0E90311C0E92E
:103AE0000811C3F67552C0E90A1200210022C4F27F
:103AF0002A31CCF22A320166002142660022C4F249
:103B0000B421CCF2282281660021C2660022C4F2D0
:103B10005021CCF2B2220167002142670022C4F298
:103B20002531CCF22532C0E91E1200210022C4F258
:103B3000D221CCF2D222C0F880100021C0F884201B
:103B40000022C4F21B31CCF21B32C0E922127047B2
:103B500070B582B015460E464FF4C05132462B4622
:103B6000044600F059F808BB40F2080049F681719C
:103B7000C2F20000C1F25E610068A0FB0101480DC5
:103B80004FF47A71484301906068B0F5827F15D197
:103B9000204631462A4600F003F938B94FF4C06197
:103BA000204632462B4600F037F888B3206E40F0AE
:103BB00020002066032002B070BD00BF01980028DD
:103BC000ECD0019801380190206880680006E5D5A6
:103BD00001980028E2D0019801380190206880689F
:103BE0000006DBD501980028D8D001980138019053
:103BF000206880680006D1D501980028CED00198B1
:103C000001380190206880680006D7D4C6E700BF5D
:103C1000002002B070BD00002DE9F04782B01F46C1
:103C200090460D46814600268DF80360FCF71CFE89
:103C3000381A00EB0807FCF717FE40F208012322B0
:103C4000C2F20001D9F8004009685143090D7943D7
:103C50000191A168294271D0824618F1010037D044
:103C6000B5F5C06F1CD100BF207B8DF803009DF817
:103C70000300FCF7F9FDA0EB0A00B84262D20198FC
:103C800001990028A1F101010191D9F8001089687A
:103C900008BF074611F4C06FE6D100264EE000BF12
:103CA000FCF7E2FDA0EB0A00B8424BD20198019963
:103CB0000028A1F101010191D9F80010896808BF1D
:103CC00007462942ECD10026304602B0BDE8F08715
:103CD0000026B5F5C06F25D1207B8DF803009DF837
:103CE0000300A06810F4C06FEDD0207B8DF80300B6
:103CF0009DF80300A06810F4C06FE4D0207B8DF81D
:103D000003009DF80300A06810F4C06FDBD0207B97
:103D10008DF803009DF80300A06810F4C06FDBD19C
:103D20000CE000BFA0682842CDD0A0682842CAD0CD
:103D3000A0682842C7D0A0682842F3D1304602B01C
:103D4000BDE8F087D9E90001B1F5827F426822F031
:103D5000E00141600AD1D9F80810B1F5004F11BF58
:103D6000B1F5806F016821F040010160D9F8281099
:103D7000B1F5005F07D1016821F4005101600168CD
:103D800041F400510160012089F85D00002089F8AC
:103D90005C000326304602B0BDE8F087000000005A
:103DA000F0B581B015460E460446FCF75DFD281AB5
:103DB0008719FCF759FD40F20801C2F200010968B9
:103DC000C1F3CB317943009121688A68120622D56C
:103DD0000546701C15D000BFFCF746FD401BB842DD
:103DE0001CD2009800990028A1F1010100912168DE
:103DF000896808BF07460806EED40CE0886800060C
:103E000009D58868000606D58868000644BF88681A
:103E10005FEA0060F2D4002001B0F0BDD4E90001F7
:103E2000B1F5827F426822F0E001416009D1A168CA
:103E3000B1F5004F11BFB1F5806F016821F040016D
:103E40000160A16AB1F5005F07D1016821F400515A
:103E50000160016841F400510160012084F85D00B7
:103E6000002084F85C00032001B0F0BD00000000D9
:103E700070470000000000002DE9F04381B00C46BF
:103E8000054601F009FFC5EB051040F2D001C2F272
:103E9000000101EB8006374617F81C0F012823D0DC
:103EA000002861D196F82F00012835D105EB850057
:103EB00040F2DC51C2F2000101EB0010024652F860
:103EC000241F013153689942116021DB016A13609C
:103ED000012921DB50F81C2F013202608A42C0F216
:103EE0009480016018E000BF96F82F00012813D1DC
:103EF00005EB850040F2DC51C2F2000101EB00103D
:103F000050F8241F4A1C41688A42026080F27C807B
:103F1000022086F82C0033E0FF2086F82C0005EB09
:103F2000850040F2DC51C2F2000101EB0011086B88
:103F300010F1020F00F1010008633FDC0A6CCB6C4A
:103F4000800003EB4203471C93FBF7F6901BC1E98B
:103F5000100206FB1732B0F5803FCA6421684BDBC4
:103F60004FF6FF70C8626BE096F92C00022807D06C
:103F7000012857D00130D2D001B0BDE8F08300BF96
:103F800005EB850040F2DC51C2F2000101EB0011AB
:103F9000486A0A6CCB6C800040F001074FF6FF7056
:103FA00003EB420393FBF7F6951BC1E9105206FBA6
:103FB00017328542CA64B8BF284641E0681C91EDBB
:103FC000040AC0B2DFED210A9FED211A4FF000096B
:103FD00086F82C904FF0010886F82E8001F05CFFE7
:103FE00086F82F9096F83100013086F83100387845
:103FF00020B14CF24F3023E0C86221E086F83080D7
:104000004CF24F301CE000BF016005EB850040F230
:10401000DC51C2F2000101EB0010012186F82C10E6
:10402000016C816405EB850040F2DC51C2F20001B5
:1040300001EB0010006CB0F5803F01DB4FF6FF7024
:104040002168C862E06001B0BDE8F08300000000B4
:1040500033335340000000002DE9F04F81B02DEDC7
:10406000048B82B0D6B2054630469146B0EE608AE7
:104070008A46B0EE409A00F073FAC9EB091B40F291
:10408000D007C2F20007304607EB8B0808F1200486
:10409000C8F8185088ED088A88ED099A00F0F0FAFF
:1040A000D8F81800411E062900F29280019408F108
:1040B0002400DFE801F005118D233545550000BFD0
:1040C0000068574602F0B2FD41EC100B4FF0000AB9
:1040D0000126002554E000BF0068574602F0A6FD07
:1040E0009FED5B0B53EC102B02F0E8FA41EC100B48
:1040F0004FF0010A0026002542E000BF0068574645
:1041000002F094FD9FED500B53EC102B02F0D6FA09
:1041100041EC100B002501264FF0010A30E000BFF2
:104120000068574602F082FD9FED450B53EC102BC3
:1041300002F0C4FA41EC100B4FF0000A01261EE019
:104140000068574602F072FD9FED3B0B53EC102BBD
:1041500002F0B4FA41EC100B4FF0010A00260EE019
:104160000068574602F062FD9FED310B53EC102BB7
:1041700002F0A4FA41EC100B01264FF0010A0125D0
:104180009FED351B51EC100B53EC112B02F096FAFE
:1041900001F02CFF40F60044C8F82800C4F20204E5
:1041A0004FF4807120463246FCF756FB4FF4007105
:1041B00020465246FCF750FB4FF4806120462A46C9
:1041C000FCF74AFBBA4640F2D007C2F20007019C56
:1041D000206802F02BFD9FED220B53EC102B02F018
:1041E0006DFA0446D8F828000D4602F01FFD02467D
:1041F0000B462046294601F0DFFF02F0A3F947F8FD
:104200002B0009F101009FED180A88F81CA0C0B22C
:104210009FED161A002188F83110F0EE400A02B026
:10422000BDEC048B01B0BDE8F04F01F035BE00BF1E
:10423000000000000000A03F000000000000B03FB0
:10424000000000000000C03F000000000000D03F60
:10425000000000000000E03F6811F16346DF913F7D
:104260007A008BFCFA2119400000000033335340E0
:10427000F0B581B02DED028B0446C0EB001040F28A
:10428000D0024FF6FF76C2F2000204EB840302EB89
:10429000800540F2DC50C2F20000002700EB031062
:1042A0000B6885F83940026C5F62B242B8BF1646AF
:1042B000DE62CE6090ED048AB5EE408AF1EE10FA2F
:1042C00002DA9FED190A11E018EE100A02F0AEFCB6
:1042D0009FED130B53EC102B02F0E1FC10B19FED9E
:1042E000130A03E0B7EE060A28EE000A601CDFEDB1
:1042F0000E0AC0B29FED0D1A01F0CEFD204600F06F
:1043000077F9204601F0C8FC4FF48170E88585F804
:104310003070BDEC028B01B0F0BD00BF00BF00BF2C
:10432000333333333333034000000000333353401F
:10433000C0EB001040F2D001C2F2000101EB80009E
:10434000002180F82C1080F82F1080F8381070476A
:10435000FCF792BA0000000080B592B043F640012D
:104360000020C4F202010B90CDE90900CDE907005D
:104370000590CDE90300CDE901000A6842F08052C2
:104380000A60096801F08051009147F20001009A2B
:10439000C4F200010A6842F440420A60096801223E
:1043A00001F44041009100990221CDE90C10082050
:1043B0000E90D8200691CDE90F0106A8099210228F
:1043C0000A921191FCF758FF20B1EFF3108072B6FA
:1043D000FEE700BFFCF700FB20B1EFF3108072B6E0
:1043E000FEE700BF0F200190022002900020039002
:1043F0004FF4A05004904FF48050059001A807217D
:10440000FCF7E2FD20B1EFF3108072B6FEE700BFCB
:1044100012B080BD000000004EF68850CEF20000C1
:10442000016841F470010160704700000000000065
:10443000052811D8DFE800F004121E2A343C00BF22
:1044400040F600004FF48051C4F20200012200F552
:104450008060FCF701BA00BF704700BF40F6000063
:104460004FF48041C4F20200012200F50060FCF725
:10447000F3B900BF40F600004FF48071C4F20200AF
:10448000012200F50060FCF7E7B900BF40F600002C
:104490000221C4F202000122A0F58060FCF7DCB921
:1044A00040F600000121C4F202000122FCF7D4B959
:1044B00040F600004FF40051C4F202000122FCF764
:1044C000CBB9000000000000052811D8DFE800F09B
:1044D00004121E2A343C00BF40F600004FF4805105
:1044E000C4F20200002200F58060FCF7B5B900BFFD
:1044F000704700BF40F600004FF48041C4F2020054
:10450000002200F50060FCF7A7B900BF40F60000EC
:104510004FF48071C4F20200002200F50060FCF745
:104520009BB900BF40F600000221C4F20200002245
:10453000A0F58060FCF790B940F600000121C4F2BC
:1045400002000022FCF788B940F600004FF4005149
:10455000C4F202000022FCF77FB900000000000056
:10456000052811D8DFE800F004121E28323C00BFF5
:1045700041F200404FF40051C4F202000022A0F5C5
:104580008050FCF769B900BF704700BF41F200409E
:104590004FF40061C4F202000022A0F58060FCF735
:1045A0005BB900BF41F20040C4F2020000F5806038
:1045B00001210022FCF750B941F200404FF4805134
:1045C000C4F202000022FCF747B900BF41F20040EC
:1045D000C4F20200A0F5A05001210022FCF73CB972
:1045E00041F200400421C4F202000022FCF734B979
:1045F000052811D8DFE800F004121E28323C00BF65
:1046000041F200404FF40051C4F202000122A0F533
:104610008050FCF721B900BF704700BF41F2004055
:104620004FF40061C4F202000122A0F58060FCF7A3
:1046300013B900BF41F20040C4F2020000F58060EF
:1046400001210122FCF708B941F200404FF48051EA
:10465000C4F202000122FCF7FFB800BF41F20040A3
:10466000C4F20200A0F5A05001210122FCF7F4B829
:1046700041F200400421C4F202000122FCF7ECB830
:1046800010B5052800F20281DFE800F00424527E14
:10469000AAD600BF41F200404FF48061C4F202008C
:1046A0000122A0F580542046FCF7D6F840F2BC4029
:1046B0000021C2F2000000684162416A092928D83D
:1046C000416A09299CBF416A092922D8416A0A29FD
:1046D000F3D31EE041F200404FF48061C4F20200C7
:1046E0000122A0F580642046FCF7B6F840F2BC40F9
:1046F0000021C2F2000000684162416A092908D81D
:10470000416A09299CBF416A092902D8416A0A29DC
:10471000F3D30169C90702D06FF0010101614FF4C1
:10472000806100222046BDE81040FCF795B800BF2C
:1047300041F200444FF40041C4F202040122204639
:10474000FCF78AF840F2BC400021C2F20000006889
:104750004162416A092908D8416A09299CBF416A16
:10476000092902D8416A0A29F3D30169C90702D08D
:104770006FF0010101614FF4004100222046BDE8C5
:104780001040FCF769B800BF41F200444FF40051FB
:10479000C4F2020401222046FCF75EF840F2BC405D
:1047A0000021C2F2000000684162416A092908D86C
:1047B000416A09299CBF416A092902D8416A0A292C
:1047C000F3D30169C90702D06FF0010101614FF411
:1047D000005100222046BDE81040FCF73DB800BF64
:1047E00041F200400821C4F202000122A0F5A054C9
:1047F0002046FCF731F840F2BC400021C2F2000034
:1048000000684162416A092908D8416A09299CBFA8
:10481000416A092902D8416A0A29F3D30169C90703
:1048200002D06FF001010161082100222046BDE89D
:104830001040FCF711B800BF41F200442021C4F23F
:10484000020401222046FCF707F840F2BC40002198
:10485000C2F2000000684162416A092908D8416A31
:1048600009299CBF416A092902D8416A0A29F3D360
:104870000169C90702D06FF0010101612021002206
:104880002046BDE81040FBF7E7BF00BF10BD0000A9
:1048900040F28C30C2F20000FDF7DABB00000000ED
:1048A00040F24030C2F20000FDF7D2BB0000000031
:1048B00040F28400C2F20000FDF7CABB0000000015
:1048C00040F27040C2F20000FDF7C2BB00000000E1
:1048D00040F20850C2F20000FDF7BABB0000000031
:1048E00040F22440C2F20000FDF7B2BB000000001D
:1048F00040F2D830C2F20000FDF7AABB0000000071
:1049000010B540F6FF3E40F2004CC4F2000E0368C2
:104910007045C4F2010C27DCB0F1804F2CD040F27E
:104920000042C4F20002904226D040F60002C4F2D7
:104930000002904220D041F6FF72C4F20002904281
:1049400024DC704536DCB0F1804F59D040F2004293
:10495000C4F20002904253D040F60002C4F20002BA
:1049600090424DD050E000BF40F60042C4F2000239
:10497000904218BF60455BD123F070024B6813432F
:1049800041F6FF72C4F200029042DADD43F6FF7294
:10499000C4F20102904221DC42F20002C4F20002A1
:1049A00090422DD00022C4F20102904228D06045EE
:1049B00026D029E040F60042C4F2000290421FD007
:1049C00041F60002C4F20002904219D041F60042C2
:1049D000C4F20002904213D016E000BF44F200027D
:1049E000C4F2010290420BD044F60002C4F201026C
:1049F000904205D044F20042C4F20102904203D139
:104A000023F44072CB68134323F080024B69D1F842
:104A100000E01A438C68026040F48062C462C0F80F
:104A200028E0624504BF096901630121416110BDAD
:104A30000022C4F2010290429ED07CE700000000F8
:104A4000416ACA070CD18A0715D44A071ED40A073F
:104A500027D4CA0630D48A0639D44A0655D541E04F
:104A60000268D0F828C0536823F4003343EA0C03EB
:104A700053608A07E9D50268D0F82CC0536823F444
:104A8000803343EA0C0353604A07E0D50268D0F84C
:104A900030C0536823F4802343EA0C0353600A07B1
:104AA000D7D50268D0F834C0536823F4004343EAF2
:104AB0000C035360CA06CED50268D0F838C093689C
:104AC00023F4805343EA0C0393608A06C5D5026839
:104AD000D0F83CC0936823F4005343EA0C0393607E
:104AE0004A0612D50268D0F840C05368BCF5801F52
:104AF00023F4801343EA0C03536006D1536823F474
:104B0000C00C436C43EA0C035360090658BF70475E
:104B10000168806C4A6822F40022104348607047A4
:104B2000806B0021A0F85A10A0F85210FDF78CBE3F
:104B3000B0F85C200168D0F88030222B40F09C80D7
:104B4000496A436D114023F8021B4365B0F85A10BF
:104B50000139A0F85A10B0F85A10002918BF704750
:104B6000016851E8001F026821F4907142E80013C7
:104B7000F3B1016851E8001F026821F4907142E826
:104B80000013002B1FBF016851E8001F026821F4C9
:104B900090711CBF42E80013002B09D0016851E856
:104BA000001F026821F4907142E80013002BD7D156
:104BB000016851E8021F026821F0010142E8021376
:104BC000F3B1016851E8021F026821F0010142E8D7
:104BD0000213002B1FBF016851E8021F026821F079
:104BE00001011CBF42E80213002B09D0016851E803
:104BF000021F026821F0010142E80213002BD7D105
:104C00002021C0F88010002181664166026E012AD1
:104C100038D10166016851E8001F026821F01001D7
:104C200042E80013F3B1016851E8001F026821F067
:104C3000100142E80013002B1FBF016851E8001F5C
:104C4000026821F010011CBF42E80013002B09D0BC
:104C5000016851E8001F026821F0100142E80013CA
:104C6000002BD7D10168CA69D20601D510220A6289
:104C7000B0F85810FDF7E4BD886940F0080088617D
:104C8000704700BFFEF7D0B9B0F85C100268D0F8EA
:104C90008030222B40F09E80526A436D1140197083
:104CA000416D01314165B0F85A100139A0F85A1030
:104CB000B0F85A10002918BF7047016851E8001F6A
:104CC000026821F4907142E80013FBB1016851E8D9
:104CD000001F026821F4907142E80013002B1FBFEF
:104CE000016851E8001F026821F490711CBF42E87E
:104CF0000013002B0AD0016851E8001F026821F45C
:104D0000907142E80013002BD7D100BF016851E831
:104D1000021F026821F0010142E80213F3B10168A9
:104D200051E8021F026821F0010142E80213002B42
:104D30001FBF016851E8021F026821F001011CBF7A
:104D400042E80213002B09D0016851E8021F0268F3
:104D500021F0010142E80213002BD7D12021C0F835
:104D60008010002181664166026E012A38D10166F9
:104D7000016851E8001F026821F0100142E80013A9
:104D8000F3B1016851E8001F026821F0100142E808
:104D90000013002B1FBF016851E8001F026821F0BB
:104DA00010011CBF42E80013002B09D0016851E834
:104DB000001F026821F0100142E80013002BD7D138
:104DC0000168CA69D20601D510220A62B0F85810EB
:104DD000FDF736BD906940F008009061704700BF54
:104DE000FEF722B90000000070B506460168806831
:104DF00046F6F315D6E9033202437069D6F81CC0B3
:104E00000C68CEF6FF75104304EA0502104340EA31
:104E10000C000860486820F4405018434860B069AE
:104E200047F2FF73326AC4F2000310438A6822F427
:104E30003062994240EA02004FF01002886019DCAB
:104E400044F6FF30C4F2000081422DDC44F2004001
:104E5000C4F2000081424DD044F60000C4F20000CC
:104E6000814271D143F69000C4F20200006801094A
:104E700056E000BF40F6FF70C4F20100814227DC1B
:104E800047F60000C4F2000081423BD047F60040E4
:104E9000C4F20000814257D143F69000C4F20200F0
:104EA0000068810B3CE000BF44F60040C4F2000003
:104EB00081422FD045F20000C4F20000814243D16C
:104EC00043F69000C4F202000068010A28E000BF27
:104ED00041F20040C4F20100814227D041F20000BB
:104EE000C4F2010081422FD143F69000C4F20200C7
:104EF000016821E043F69000C4F2020000688108D6
:104F00000EE000BF43F69000C4F202000068010BFF
:104F100006E000BF43F69000C4F202000068810979
:104F200046F6B052C0F600020AE000BF43F6900019
:104F3000C4F202000068810A46F6A052C0F60002E0
:104F400001F0030052F8202042F20040BCF5004F6F
:104F5000C0F2F4000ED1082A4FF0010122D8DFE898
:104F600002F0051929211D2121212700FCF724F930
:104F700000BB16E0082A4FF0010113D8DFE802F069
:104F8000062E381232121212360000BFFCF714F946
:104F900070BB3AE0FCF724F960B902E0FCF734F9A1
:104FA00040B900210020C6E91A00084670BD00BFC4
:104FB0004FF4004071684A0802EB40004FF6EF7270
:104FC000B0FBF1F0A0F11001914225D84FF6F0713D
:104FD0000140C0F34200084415E000BFFCF700F9AF
:104FE00030B912E0FCF710F910B90EE04FF40040B0
:104FF00071684FF6EF7200EB5100B0FBF1F0A0F1D9
:105000001001914208D83168C86000210020C6E92B
:105010001A00084670BD00BF01210020C6E91A0031
:10502000084670BD000000004165A0F85820A0F8B7
:105030005A2000228168826651B1B1F1805F0BD0A5
:10504000B1F5805F0CD1016921B940F2FF110AE08E
:10505000016939B9FF2106E0016919B13F2102E078
:10506000002100E07F21A0F85C100021C0F884102E
:105070002221C0F88010016851E8021F026841F047
:10508000010142E80213F3B1016851E8021F02680E
:1050900041F0010142E80213002B1FBF016851E8F3
:1050A000021F026841F001011CBF42E80213002BFD
:1050B00009D0016851E8021F026841F0010142E88D
:1050C0000213002BD7D18168B1F5805F016907D148
:1050D000B1B344F68941C0F60001816606E000BF25
:1050E00044F68942C0F60002826671B3016851E855
:1050F000001F026841F4907142E80013002B4CD06D
:10510000016851E8001F026841F4907142E8001301
:10511000002B1FBF016851E8001F026841F4907125
:105120001CBF42E80013002B37D0016851E8001F74
:10513000026841F4907142E80013002BD6D12CE0B4
:1051400044F63131C0F600018166016851E8001F64
:10515000026841F0200142E80013F3B1016851E810
:10516000001F026841F0200142E80013002B1FBF1E
:10517000016851E8001F026841F020011CBF42E8AD
:105180000013002B09D0016851E8001F026841F0AC
:10519000200142E80013002BD7D100207047000007
:1051A0002DE9F041044600680D46C7693940491BA6
:1051B000B1FA81F14909914240F0A580DDF81880EB
:1051C000B8F1000F2AD0164618F1010140F0848092
:1051D000C1692940491BB1FA81F14909B14240F046
:1051E0009280C1692940491BB1FA81F14909B14254
:1051F00001BFC1692940491BB1FA81F104BF4909C6
:10520000B14240F08080C1692940491BB1FA81F167
:105210004909B142DCD00020BDE8F081FBF724FB56
:10522000206850E8000F216820F4D07041E80002A7
:10523000F2B1206850E8000F216820F4D07041E8F6
:105240000002002A1FBF206850E8000F216820F4E8
:10525000D0701CBF41E80002002A09D0206850E845
:10526000000F216820F4D07041E80002002AD7D155
:10527000206850E8020F216820F0010041E8020296
:10528000F2B1206850E8020F216820F0010041E8E7
:105290000202002A1FBF206850E8020F216820F098
:1052A00001001CBF41E80202002A09D0206850E832
:1052B000020F216820F0010041E80202002AD7D144
:1052C0002020E06704F1800020210160002084F8A4
:1052D00078000320BDE8F0811F4600BFFBF7C4FA49
:1052E000C01B40459CD820680168490744BFC1697C
:1052F0005FEA01510AD4C0692840401BB0FA80F02F
:105300004009B042EAD00020BDE8F0814FF40061CE
:105310000162206850E8000F216820F4D07041E855
:105320000002F2B1206850E8000F216820F4D0702C
:1053300041E80002002A1FBF206850E8000F2168E2
:1053400020F4D0701CBF41E80002002A09D0206878
:1053500050E8000F216820F4D07041E80002002AD4
:10536000D7D1206850E8020F216820F0010041E801
:105370000202F2B1206850E8020F216820F001001B
:1053800041E80202002A1FBF206850E8020F21688E
:1053900020F001001CBF41E80202002A09D0206869
:1053A00050E8020F216820F0010041E80202002AC3
:1053B000D7D12020E067C4F8800004F1840083E79F
:1053C00040F25450C2F20000FDF742BA0000000063
:1053D0007A21C0F2102101604FF4417181807F2158
:1053E00081710121C171002101724176817670477E
:1053F000C17902290ED0012918BF7047417E7A2950
:1054000022D1017A7A2201444A72012101720221D9
:10541000C1717047027A417E7F2909D10F2A13D1C9
:10542000017A7F2201444A720321C171704700BF93
:105430000F2A09D0027A0F2A06D8027A0244517242
:10544000017A01310172704700210172C0F8091020
:10545000C0F80D10C0F81110C0F815100121C1716D
:105460007047000000000000FEE7000000000000A0
:1054700090B040F20047C4F20207FBF70DFAFEF7C6
:105480006BFF43F630004FF00008C4F20200CDF885
:10549000188007F54064012201684FF0010941F0CE
:1054A00010010160016801F010010C910C99016874
:1054B00041F004010160016801F004010C910C99B4
:1054C000016841F020010160016801F020010C91A8
:1054D0000C99016841F080010160016801F08001D0
:1054E0000C910C99016841F001010160016801F023
:1054F00001010C910C99016841F002010160016801
:1055000001F002010C910C99016841F04001016029
:10551000016801F040010C910C99016841F008010B
:1055200001600068302100F008000C900C982046C3
:10553000FBF792F907F580604AF209010022019019
:10554000FBF78AF907F580554BF62401002228461F
:10555000FBF782F94FF4A07101222846FBF77CF992
:10556000A7F5806B092100225846FBF775F94BF22D
:10557000024100223846FBF76FF907F5A0560321D8
:1055800000223046FBF768F94FF4BA41002220466A
:10559000FBF762F907F5006A41F2307100225046CC
:1055A000FBF75AF902AF45F63050CDE90209204623
:1055B0003946CDE90488FBF77BF8019C4AF20900E3
:1055C000CDE9020920463946CDE90488FBF770F899
:1055D0004BF664103946CDE902092846CDE9048826
:1055E000FBF766F809203946CDE902095846CDE9AE
:1055F0000488FBF75DF840F200454BF20240C4F22C
:1056000002053946CDE902092846CDE90488FBF7B1
:105610004FF803203946CDE902093046CDE9048828
:10562000FBF746F84FF480403946CDE9020828469A
:10563000CDF81080FBF73CF841F230703946CDE9E7
:1056400002095046CDE90488FBF732F802A94FF46D
:10565000E07081E8010330463946FBF729F802A9DA
:105660004FF4C07081E80103204639462F46FBF70E
:105670001FF840F27000A5F5C831C2F20000CDE974
:1056800002880160FAF730FF20B1EFF3108072B6A4
:10569000FEE700BF40F2700002A9C2F20000002243
:1056A000FAF7FEFE20B1EFF3108072B6FEE700BFFE
:1056B00040F2700602A9C2F2000610223046FAF744
:1056C000EFFE28B1EFF3108072B600BFFEE700BF17
:1056D00030464FF080420021059140F8142F4722B8
:1056E000CDE903110D91C0E901214FF6FF728161EF
:1056F000C0E90321FCF7F4F920B1EFF3108072B692
:10570000FEE700BF06F114044FF48050029002A996
:105710002046FCF7C9FB28B1EFF3108072B600BF3A
:10572000FEE700BF0CA9204600250C950E95FCF75E
:105730006FF928B1EFF3108072B600BFFEE700BF2B
:1057400040F2BC400395C2F20000A7F5FA310160B7
:10575000D721C0E901154FF6FF71C1608561FCF7E3
:10576000BFF928B1EFF3108072B600BFFEE700BFAB
:1057700040F2BC4002A9C2F2000000250295049547
:10578000FCF746F920B1EFF3108072B6FEE700BFD8
:1057900040F208500395C2F20000A7F5F83101600D
:1057A0004721C0E901154FF6FF71C1608561FCF723
:1057B00097F928B1EFF3108072B600BFFEE700BF83
:1057C00040F2085002A9C2F200000025029504959B
:1057D000FCF71EF920B1EFF3108072B6FEE700BFB0
:1057E00040F24030B946C2F20000A7F540414727D9
:1057F0004FF6FF780160C0E90175C0E90385856156
:10580000FCF76EF920B1EFF3108072B6FEE700BF2F
:1058100040F28C30A9F53C41C2F200000025C0E9FD
:105820000017C0E9025805618561FCF759F918B104
:10583000EFF3108072B6FEE740F2D830A9F5F431EC
:10584000C2F2000047274FF6FF780160C0E90175FA
:10585000C0E903858561FCF743F918B1EFF31080C7
:1058600072B6FEE740F22440A9F5F231C2F2000020
:105870000025C0E90017C0E9025805618561FCF701
:105880002FF918B1EFF3108072B6FEE740F27820DE
:10589000A9F55041C2F200004FF4827A4FF47068CB
:1058A000072701604FF40071C0E901A5C0E9038535
:1058B00045614FF0080BC0E90615C0E9085585623F
:1058C000C0E90B75C0F834B0FBF79EFE20B1EFF3D2
:1058D000108072B6FEE700BF40F2DC20A9F534412B
:1058E000C2F200000025C0E9001AC0E90258C0E970
:1058F00004554FF40071C0E90615C0E90855C0E928
:105900000A57C0E90C5BFBF77FFE18B1EFF310807C
:1059100072B6FEE740F25450A9F57441C2F200009D
:1059200001604FF4E131C0E90115C0E903550C21D4
:105930004562C0E90515C0E90755FDF789FA18B1B8
:10594000EFF3108072B6FEE740F270400021C2F221
:1059500000000F91CDE90D110A91A9F50032CDE9B2
:105960000711CDE90511026040F66F02C0E901217F
:1059700040F2E7328161C0E90321FCF7B1F818B1C8
:10598000EFF3108072B6FEE74FF480500C9040F2B7
:1059900070400CA9C2F20000FCF786FA20B1EFF3C8
:1059A000108072B6FEE700BF40F27040C2F2000005
:1059B000FCF7D6FD20B1EFF3108072B6FEE700BF12
:1059C00040F2704009A9C2F20000002509950B952C
:1059D000FCF71EF820B1EFF3108072B6FEE700BFAF
:1059E000602002A9CDE9020540F270400022C2F217
:1059F000000004950695FCF71FFC18B1EFF310802A
:105A000072B6FEE740F27048C2F200084046FCF76A
:105A1000E7FB2046FCF7ECF940F20859C2F2000916
:105A20004846FCF7E5F940F2403AC2F2000A504617
:105A3000FCF7DEF940F28C3BC2F2000B5846FCF753
:105A4000D7F940F2D830C2F20000FCF7D1F940F2A9
:105A50002445C2F200052846FCF7CAF940F2BC40D2
:105A6000C2F20000FCF76CF9002140460027FCF769
:105A7000AFFD00213046FAF793FD10213046FAF7CA
:105A80008FFD40F64C0640F25450C2F20006C2F2BE
:105A9000000006F119010122FDF77AFA3046FFF7FE
:105AA00097FC40F2BC70C2F20000FDF7FDFF9FEDD5
:105AB00070AA07209FED6F8AB0EE4A0AF0EE480AFE
:105AC00000210022FEF7C8FAB0EE4A0AF0EE480ABA
:105AD000072000210122FEF7BFFAB7EE009AB0EED0
